:020000040000FA
:03000000020C6887
:03002B00020A4086
:030033000205C201
:03004300020A1B93
:03005B000209DBBC
:03006300020A008E
:03006B0002054B40
:10007B00020588FFAE0DF80E022000000082003A48
:10008B00003B00FF3333534000000045000020418C
:10009B000000C842D7A33040010000000058000008
:1000AB00FF45726173696E67207061676530000090
:1000BB000004000000080000000C000000100045C8
:1000CB00726173696E6720666C6173680053697A3D
:1000DB00653A25640057726974696E6720666C61B6
:1000EB0073680057520052656164696E6720666CD5
:1000FB0061736800FEFF0001025244005820464C19
:10010B0041534820434845434B4544210058204622
:10011B004C415348204552524F52210000010000E0
:10012B00000000000000FCFF640000004E45574239
:10013B0049542053545544494F002020202020205F
:10014B002020202020202020202000094E657762CF
:10015B006974204B4954203520006E6577626974B1
:10016B0073747564696F2E636F6D005468697320C7
:10017B006973206120554152542074657374206D4E
:10018B006173736167652C2062617564726174655C
:10019B002039363030002020202020202020202025
:1001AB0020202020202000533000533100533200F8
:1001BB005333005334005335004C494748543A00ED
:1001CB00504F54454E3A0048553A20202020544574
:1001DB003A00FFFFFFFF02000000120C87700418AB
:1001EB00181822120C96700D74FFF61819F61819C0
:1001FB00F61819F622E7548066F6120CF2700F12FD
:10020B000CE870F014F608F608F608F680D1120C1C
:10021B00E8700CF608F608768008E6447F80EC124E
:10022B000BB6700C120B7760BFE65480F6E480BB04
:10023B00120B77700519191980A5E869700C763FB8
:10024B0018768018F618F6E8F922E6CDC0E018EC1F
:10025B00C0E0E633CD33CDD313F6E719FCE719191C
:10026B0033CC33C3947F400ECD9D502408E654808D
:10027B00F6E418F6800FF4043D14501408E6447F9E
:10028B00F6187680E418F618F6D0E0FCD0E0FD22E4
:10029B00CCD313CCFD18E4C6CBC0E018E4C6CAC05F
:1002AB00E00808ED08C633E613F618E433C675F01C
:1002BB0003C3CA97CA09CB97CB199C40047D08800E
:1002CB002EBD000302038E16B6FF05060608161890
:1002DB00C3CA33CACB33CB33CA27CA09CB37CB19E3
:1002EB003CC37D08803E187D0820E75CC633C6CA38
:1002FB0033CACB33CB33DDF1D5F0EB30E77BCA9789
:10030B00CA09CB974ACB199C406F4B7025E620E06E
:10031B00218066187D08C3CA97CA09CB97CB199C55
:10032B00D3C633C6CA33CACB33CB3350C9DDE7D5BB
:10033B00F0E1D3E4C636C608C636C608C636C608CC
:10034B00C636C61818188031C3CA97CA09CB97CBC3
:10035B00199CB34097C633C6CA33CACB33CB33DDF4
:10036B0034D5F02EC6A2E0C640C8CA27CA09CB377F
:10037B00194A70BECB3CB480B90808E63308E633A3
:10038B00601F181818D0E0FAD0E0FBD0E0FCD0E0EA
:10039B00FD22187D08CA27CA09CB37CB193CD3805D
:1003AB008013F618E4B67F11F618B6FF0EF618C6D2
:1003BB000470D20808768080CAF618F618F680C545
:1003CB0000120C87604F120C966012E7548066F691
:1003DB00120B747011120CE8703B090909F4F61832
:1003EB00F618F618F622120BB37015120CF2080859
:1003FB000860EAE6447FF618768018E4F618F622D1
:10040B00120CF26016120CE87012E4F608F608F6FD
:10041B0008E65480F609090918181822EAC0E0EB1F
:10042B00C0E0ECC0E0EDC0E0E687F0A4FBACF00868
:10043B00E687F0A42CFCE435F0FA1809E687F0A463
:10044B002C4B60027401CA35F0FCE433FB09E687E0
:10045B00F0D2F7A42CCB35F0FC1908E687F0A42BCF
:10046B00CC35F0FBE433FD0819E687F0D2E7A42C7A
:10047B004ACB35F0CD3400FC09E687F0D2E7A42D4A
:10048B00CC35F0FDE433FA0918E687F0D2F7A42C4B
:10049B00CD35F0CA3400FC08E687F0D2E7D2F7A4DA
:1004AB002ACC35F07A7E20E70B0ACB33CBCD33CD7C
:1004BB00CC33CC33CB3350147004ED30E00ED2F18F
:1004CB00E4CD3DCDCC3CCC3B5005DA05C2F1EB5431
:1004DB007FC63308E63392F0FBE73309E733C39A61
:1004EB00502D2B70190C0D4C4D70151806E608C3CA
:1004FB0033700D20F10AA2F013F6E418800B4024A0
:10050B00E4F630F002768018F618F618F68024D34D
:10051B003B14501074FFA2F013F6187680E418F613
:10052B0018F6800FA2F013F618E63303F618ECF664
:10053B0018EDF6D0E0FDD0E0FCD0E0FBD0E0FA22E5
:10054B00C0E074F21207D0A2AFE433FED2AF120DAB
:10055B0090E589A2E05003120E14E589A2E4500342
:10056B00120E14E589A2E55003120E14758900C210
:10057B00C5EEF8EEA2E092AF7F0102093DC0E07438
:10058B00F21207D0A2AFE433FED2AFE58AA2E0505D
:10059B0003120E14E58AA2E35003120E14E58AA28D
:1005AB00E45003120E14758A00C2EBEEF8EEA2E0D3
:1005BB0092AF7F0102093DC0E0C0D0E8C0E0E9C0C6
:1005CB00E0A2AFE433F8D2AFE8F9E8A2E092AFD003
:1005DB00E0F9D0E0F8D0D0D0E03212062520F014AC
:1005EB0030E72B74FFFCFBFA747F8022E4FCFBFAF0
:1005FB007480801AB48008BC00F2BB00EF800F50EF
:10060B00EBF9E4C39AFAE49BFBE49CFCE499C6CCBB
:10061B0018C6CB18C6CA18C6F922E4C9C608CAC67A
:10062B0008CBC6D3330308CCC63392F0C3947F40B8
:10063B002E94184019C9B90704CACBCC225025C334
:10064B0009CA33CACB33CBCC33CC33D9F422F460C5
:10065B000DC9CCC313CB13CBCA13CAD9F6CC22E426
:10066B00FCFBFA2214FCFBFA22080808EAC0E0EBB8
:10067B00C0E086F0E7A4FA180986F0E7A42AFA1876
:10068B000986F0E7A42AFA180986F0E7A42AFA19D2
:10069B0086F0E7A4FBE5F02AFA190886F0E7A42B0D
:1006AB00FBE5F03AFA190886F0E7A42BFBE5F03AE4
:1006BB00FA18180986F0E7A4C5F02BFBE43AFA19EF
:1006CB0008E7C5F0C6A426F6E5F03BFBE43AFA18BA
:1006DB0086F0E7A4F6E5F00826F6E43B08F6E43AE4
:1006EB0008F6D0E0FBD0E0FA22E4CFC0E0E4CEC0C5
:1006FB00E0E4CDC0E0E4CCC0E075F020C3E633F617
:10070B0008E633F608E633F608E633F6181818EC65
:10071B0033FCED33FDEE33FEEF33FFC3EC9709ED06
:10072B009709EE9709EF97191919400FFFEC97FCF2
:10073B0009ED97FD09EE97FE191906D5F0BEECF7FA
:10074B0009EDF709EEF709EFF7191919D0E0FCD00D
:10075B00E0FDD0E0FED0E0FF222510C582C0E0E531
:10076B001134FFC583C0E0E510C3958224F810AFA8
:10077B00088583118582108008858311858210D2AC
:10078B00AFCEF0A3E520F0A37808E608F0A3DEFADD
:10079B00EFF0A3E58124FAF8E608F0A3E608F0A34E
:1007AB00E608F0A30808E608F0A3E608F0A3158115
:1007BB001581D0E0FED0E0F8158115811581E8C0D8
:1007CB00E0EEC0E022C0D02510C582C0E0E51134B8
:1007DB00FFC583C0E0E510C3958224F310AF0885F5
:1007EB0083118582108008858311858210D2AFC852
:1007FB00F0A3E9F0A3EAF0A3EBF0A37908E709F083
:10080B00A3D8FAECF0A3EDF0A3EEF0A3EFF0A3D096
:10081B00E0F0A3D0E0F0A3D0E0F0A3E520F0A3E557
:10082B00F0F0A322E9799EC608CAC608CBC608CC4D
:10083B00C6C370207996CACBCC7019798ECBCC708D
:10084B00137986CC700EF9802ACA33CACB33CBCC42
:10085B0033CC331930E7F2CCCBCA3350147004EAE3
:10086B0030E00DE4CA3ACACB3BCBCC3CCC500209AE
:10087B00C3E913C6CC182313C6CB18C6CA18C6F9BE
:10088B0022B90010BB0008E88AF084F8AAF022E431
:10089B00FBC8FA22EB70227B10C833C8C933C933AB
:1008AB005007C39AC3DBF280069A50012ADBEAC8D1
:1008BB0033F4C8C933F4C9FA2275F008E4C833C855
:1008CB00C933C933C99AC99B5004C92AC93BD5F04E
:1008DB00ECFBC833F4C8E4C9FA2212106BB900035D
:1008EB00020927E490030178CE79058002F0A3D8A2
:1008FB00FCD9FA9007CEAA82AB8390007E786879F8
:10090B00028015E493A3AC82AD838A828B83F0A320
:10091B00AA82AB838C828D83D8E9D9E77582A075C7
:10092B0083727400120AC375826675831074001289
:10093B000AC3851183851082E0C0E0A3E0F9A3E030
:10094B00FAA3E0FBA37808E0F608A3DFFAE0FCA328
:10095B00E0FDA3E0FEA3E0FFA3E0C0E0A3E0C0E066
:10096B00A3E0F5D0A3E0F520A3E0A3F5F010AF08CA
:10097B008583118582108008858311858210D2AF03
:10098B00D082D083D0E0F8D0E032851183851082FD
:10099B00E0A3FEE0A3F5207808E0A3F608DFFAE079
:1009AB00A3FFE0A3C0E0E0A3C0E0E0A3C0E0E0A3AE
:1009BB00C0E0E0A3C0E010AF0885821085831180F2
:1009CB0008858210858311D2AFD083D082020AC9E9
:1009DB00C0E0C0D0E8C0E0C082C083E5D85407F8BF
:1009EB00E5CD9008A6F053D8F8D083D082D0E0F8AC
:1009FB00D0D0D0E032C0E0C0D0E8C0E0E5D8540E93
:100A0B00F8E5C0541053D8F1D0E0F8D0D0D0E03294
:100A1B00C0E074F21207D0A2AFE433FED2AFC2C073
:100A2B00E5D1A2E45003120ECEEEF8EEA2E092AFA7
:100A3B007F0102093DC0E0C0D0E8C0E0E9C0E0A200
:100A4B00AFE433F8D2AFC2C7E8F9E8A2E092AFD077
:100A5B00E0F9D0E0F8D0D0D0E032CAC0E0E0A3C5D6
:100A6B0082CCC582C583CDC583F0A3C582CCC5829C
:100A7B00C583CDC583DAE6D0E0CA22C008C3E096B1
:100A8B00F50808A3E096420808A3E096420808A3DD
:100A9B00E09645087001D3D00822C5822510C58287
:100AAB00C583351110AF07F5118582108007F5113D
:100ABB00858210D2AFC58322C09FF59FE473D09F70
:100ACB0022D083D082C09FE493C0E0740193C0E036
:100ADB00740293F59F222510F58210AF08F5104094
:100AEB000215118008F51040021511D2AF85118344
:100AFB0022C0D0251010AF08F51050020511800848
:100B0B00F51050020511D2AFD0D02260160808089C
:100B1B00C6C313C618C613C618C613C618C613C643
:100B2B00D5E0EA22C3E0C696F608A3E0C696F6081F
:100B3B00A3E0C696F608A3E0C696F62274048006D8
:100B4B00740280027401C0E0F404120AE1D0E012D6
:100B5B000CC322251010AF08F510400215118008A8
:100B6B00F51040021511D2AF22181818E6084608E6
:100B7B00700AE608C3337005E633F4220822E066F8
:100B8B00701008A3E066700A08A3E066700408A35F
:100B9B00E06622C3E09608A3E09608A3E09608A3BC
:100BAB00E096A2D265D03322191919E709470970CB
:100BBB000AE709C3337005E733F4220922E627F667
:100BCB000809E637F60809E637F60809E637F6228C
:100BDB00E026F608A3E036F608A3E036F608A3E015
:100BEB0036F622E026F008A3E036F008A3E036F054
:100BFB0008A3E036F022700422600D18C6C333C67A
:100C0B0008C633C6D5E0F41822E056F608A3E05622
:100C1B00F608A3E056F608A3E056F622E4C396F6D0
:100C2B0008E496F608E496F608E496F622C3E096F6
:100C3B0008A3E09608A3E09608A3E09622600D08AF
:100C4B00C6A2E713C618C613C6D5E0F322C3E796B0
:100C5B000809E7960809E7960809E7962275D00078
:100C6B00758140751001751103000208E5E0F60867
:100C7B00A3E0F608A3E0F608A3E0F622E608460890
:100C8B00C3134608336002E633F422E7094709C36E
:100C9B00134709336002E733F422E6F008A3E6F0CA
:100CAB0008A3E6F008A3E6F022600C08C6C313C63F
:100CBB0018C613C6D5E0F422CAC0E0E6F0A308DAE2
:100CCB00FAD0E0FA22E0FAA3E0FBA3E0FCA3E0FDFC
:100CDB0022EAF0A3EBF0A3ECF0A3EDF022E7C33391
:100CEB0019471947194722E6C333184618461846C1
:100CFB00222510F582E43511F58322120ACC83628A
:100D0B0000120ACCA16200120ACCD36200120ACCE8
:100D1B00226300120ACC606300120ACC2C6500120D
:100D2B000ACC537000120ACC7B7000120ACC9B7059
:100D3B0000120ACCBB7000120ACC0B7100120ACC49
:100D4B00177300120ACC347300120ACC656F0012B1
:100D5B000ACC766F00120ACC397000120ACC866965
:100D6B0000120ACC946900120ACC486B00120ACC10
:100D7B005F6B00120ACC706B00120ACC9D6B0012D9
:100D8B000ACCC06B00120ACC2D6C00120ACCA46CDE
:100D9B0000120ACC3D7400120ACC2D7100120ACC41
:100DAB003D7100120ACC5D7100120ACCF271001277
:100DBB000ACC6A3600120ACC733600120ACC1B37E7
:100DCB0000120ACC613700120ACCA23800120ACCEE
:100DDB00D23800120ACC1C3A00120ACC273A001265
:100DEB000ACC3D6500120ACCD56500120ACCA5676A
:100DFB0000120ACCC06700120ACC266800120ACC7B
:100E0B00A46800120ACCDF6800120ACC2369001216
:100E1B000ACCD25700120ACCEB5700120ACC081C92
:100E2B0000120ACC6B5900120ACC6B5C00120ACC74
:100E3B009F7300120ACCCC7300120ACC004D001227
:100E4B000ACC184D00120ACC634E00120ACCA24EEB
:100E5B0000120ACC034F00120ACC0E4F00120ACC20
:100E6B002E4F00120ACC3E6200120ACC4D500012DB
:100E7B000ACC675000120ACC815000120ACCDA500F
:100E8B0000120ACC0D5100120ACCED5100120ACC03
:100E9B00355200120ACCC83F00120ACC382400127B
:100EAB000ACC7F2400120ACC522700120ACC242829
:100EBB0000120ACC0E2900120ACCB42A00120ACC5A
:100ECB00E92C00120ACC772D00120ACCCC2D001283
:100EDB000ACCDA2D00120ACCED2D00120ACC042E0E
:100EEB0000120ACC1B2E00120ACC292E00120ACC9F
:100EFB00222F00120ACCD42F00120ACC263000125B
:100F0B000ACC813000120ACC2B3100120ACC6D3185
:100F1B0000120ACC713300120ACC753500120ACCC0
:100F2B00026D00120ACCD76D00120ACCF3730012BB
:100F3B000ACC007200120ACC2A7200120ACC1F745F
:100F4B0000120ACCCB5C00120ACCB71B00120ACCE5
:100F5B000C1B00120ACC7D1A00120ACC101A0012BC
:100F6B000ACC151900120ACCB31800120ACC7F1543
:100F7B0000120ACC666100120ACC466100120ACC40
:100F8B001A1500120ACC7F1200120ACC5A740012E6
:100F9B000ACC292400120ACC2A1200120ACC701097
:100FAB0000120ACC573F00120ACCB93D00120ACCF2
:100FBB006C3D00120ACC273D00120ACC0D6F0012BB
:100FCB000ACC3A6E00120ACC377300120ACC905638
:100FDB0000120ACC875600120ACCCC2300120ACC82
:100FEB008A2300120ACC8C2000120ACC8E1E00120F
:100FFB000ACCB01C00120ACC615600120ACC4F5618
:10100B0000120ACC3D5600120ACCB54F00120ACC86
:10101B00E05500120ACC895500120ACCFE5400127E
:10102B000ACC815400120ACCE85300120ACC5F1C84
:10103B0000120ACC6A5200120ACC715300120ACC6D
:10104B003E5300120ACCE05200120ACCBA520012E4
:10105B000ACC785200120ACC7C580000000080FBAE
:10106B00790122E47374F412076474F8120B5E7E38
:10107B000075080090032A7400F07F7980137404C4
:10108B00120CFCE064FF7004A3E064FF6002EFFE4F
:10109B000FEFC3947F5049750A08750B00780A123D
:1010AB000B4B7402120CFCAC82AD837A007B00EF0D
:1010BB00F9120DEA7402120AFC851082851183E085
:1010CB0064FF7004A3E064FF70B490032AE0700720
:1010DB00EF90032AF080B97A01EFF9120FA080B0DC
:1010EB00EE602690032AE0601490032AE0F9120FB9
:1010FB00887A007B00EEF9120F76E9801AEEF9126E
:10110B000F88EE90032AF0800E90032AE06008907F
:10111B00032AE0F9120F887F79801BAC087A007BD9
:10112B0000EFF9120F8E8A0A8B0BE50A450B60054F
:10113B007508017F780FEFC3947F40DFE508601ED1
:10114B007F7980147C007A007B00EFF9120F8E8A76
:10115B00088B09A808A9090FEFC3947F40E69003F9
:10116B002AE0600302121E7F007B00805EEFF8799D
:10117B0000E875F002A4C8AAF075F000A42AFA756D
:10118B00F002E9A42AF9741E28F582740339F58359
:10119B00C082C083EBF87900E875F002A4C8AAF00E
:1011AB0075F000A42AFA75F002E9A42AF9741E2836
:1011BB00F582740339F583E0F8A3E0F9D083D0828C
:1011CB00C3E098A3E0995002EBFF0BEBC3940650DE
:1011DB0033EBF87900E875F002A4C8AAF075F000BB
:1011EB00A42AFA75F002E9A42AF9741E28F5827470
:1011FB000339F583E064F87004A3E064076003022D
:10120B001178EBFF74792F90032AF090032AE0F901
:10121B00120F8879017408120AFC7F040209957475
:10122B00F712076474F8120B5EE9FEEAFF85108271
:10123B008511837400F0A37400F0EF600E7402123A
:10124B000CFC7400F0A37400F0800C7402120CFC04
:10125B0074FFF0A374FFF0851082851183AC82AD0F
:10126B00837A007B00EEF9120F527408120AFC7F8E
:10127B000102099574F012076474F6120B5E851067
:10128B0082851183EAF0A3EBF0890E8C0F750A08A7
:10129B00750B00750800750900750C08750D007845
:1012AB000C120B4B7404120CFCAC82AD83AA0AAB70
:1012BB000BA90E120DEA7402120AFC7402120CFC3A
:1012CB00E064FF7004A3E064FF70030214B47404C1
:1012DB00120CFCC3E094FCA3E094FF40067EFC7F61
:1012EB00FF80317404120CFCE02403F50CA3E034F2
:1012FB0000F50D7402780C120CB4AE0CAF0DEE753C
:10130B00F004A4CEA8F075F000A428F875F004E55D
:10131B000DA428FF74F8C3950AF87407950BF9C34D
:10132B00E89EE99F501EE5082400F8E5093408F90A
:10133B00E8C3950AF508E9950BF509750A00750BD5
:10134B00080214B4E50A2408F50AE50B3400F50B82
:10135B007402120CFCE0F8A3E0F9E84970030214E4
:10136B008A851082851183E0F8A3E0F9E849607360
:10137B00851082851183E054FFF8A3E0547FF97444
:10138B0002120CFCE0687003A3E069600302149C7A
:10139B00851082851183E05400F8A3E05480F9E8AE
:1013AB004970107408120CFCE064FF7004A3E06435
:1013BB00FF6029851082851183E05400F8A3E05467
:1013CB0080F9E849700302149C7408120CFCE06469
:1013DB00FF7004A3E064FF700302149CAA0AAB0B1A
:1013EB000215107404120CFCE0FCA3E0FDAA0AAB7E
:1013FB000BA90E120F588A0C8B0DA80CA90D740695
:10140B00120CFCE0687003A3E0697054E50F6039BF
:10141B007408120CFCE064FF7004A3E064FF7071AD
:10142B007402120CFCE04400FAA3E04480FB120FA0
:10143B00708A0C8B0DAA0CAB0DEA4B60547C01909F
:10144B00032BE0F9120F6A80487408120CFCE0645D
:10145B00FF7004A3E064FF60387AFF7BFF02151076
:10146B007C01AA0AAB0BA90E120F6AEE2408F8EF47
:10147B003400F9E50828F508E50939F5098012EE7D
:10148B002408F8EF3400F9E50828F508E50939F5E3
:10149B0009E50A2EF50AE50B3FF50BC3E50A94F8AF
:1014AB00E50B940750030212A4E50EA80E7900E891
:1014BB0075F002A4C8AAF075F000A42AFA75F00220
:1014CB00E9A42AF9742028F582740239F583E50A18
:1014DB00F0A3E50BF0E50EA80E7900E875F002A479
:1014EB00C8AAF075F000A42AFA75F002E9A42AF94B
:1014FB00742C28F582740239F583E508F0A3E5090D
:10150B00F07A007B00740A120AFC7F0802099574BA
:10151B00F7120764E9FEEEF9120DF6EEF87900E822
:10152B0075F002A4C8AAF075F000A42AFA75F002AF
:10153B00E9A42AF9742028F582740239F58374081A
:10154B00F0A37400F0EEF87900E875F002A4C8AAD5
:10155B00F075F000A42AFA75F002E9A42AF9742CAC
:10156B0028F582740239F5837400F0A37400F07FC0
:10157B000102099574F112076474F5120B5E74097C
:10158B00120CFCEAF0A3EBF0890E750A00750B0048
:10159B00800CE50A2401F50AE50B3400F50BC3E5D5
:1015AB000A9400E50B9408503D7508017509007805
:1015BB0008120B4B7402120CFCAC82AD83AA0AAB63
:1015CB000B90032AE0F9120DEA7402120AFC851043
:1015DB0082851183E064FF60B990032AE0F9120F52
:1015EB008879000218A9750A08750B008510828589
:1015FB0011837401F00217E87403120CFCC3E0941E
:10160B00FCA3E094FF40067EFC7FFF803174031245
:10161B000CFCE02403F50CA3E03400F50D74027808
:10162B000C120CB4AE0CAF0DEE75F004A4CEA8F0FA
:10163B0075F000A428F875F004E50DA428FF74F8E4
:10164B00C3950AF87407950BF9C3E89EE99F5003FD
:10165B0002186B74F8C39508F874079509F9C3E879
:10166B009EE99F500C8510828511837400F002183F
:10167B006BE50A2408F50AE50B3400F50B7401122F
:10168B000CFCE0F8A3E0F9E84970030217DE7401E3
:10169B00120CFCE0F8A3E0F97409120CFCE0687082
:1016AB0003A3E06970030217DE7403120CFCE0FC69
:1016BB00A3E0FDAA0AAB0BA90E120F588A0C8B0DD7
:1016CB00A80CA90D7405120CFCE0687003A3E0696B
:1016DB0060030217DE7407120CFCE064FF7004A3B6
:1016EB00E064FF700B7C00AA0AAB0BA90E120F6A09
:1016FB00750C00780C120B4FE4F50CF50D780C12F1
:10170B000B4B7406120CFCE0FCA3E0FD7404120CF2
:10171B00FCE0FAA3E0FB90032AE0F9120FEE74034E
:10172B00120AFCE97003021862E5082408F508E5C3
:10173B00093400F5098E0C8F0D780C120B4B7808C1
:10174B00120B4B90032AE0FCAA0AAB0BA90E120F4B
:10175B00F47404120AFC7403120CFCE0FCA3E0FD0D
:10176B00AA08AB0990032AE0F9120F588A0C8B0DCB
:10177B00A80CA90D7405120CFCE0687003A3E069BA
:10178B0060030218577405120CFCE0FCA3E0FDAAE1
:10179B0008AB0990032AE0F9120F648A0C8B0DA891
:1017AB000CA90D7405120CFCE0687003A3E06960D2
:1017BB000C8510828511837400F002186B74011272
:1017CB000CFCE0FCA3E0FDAA08AB0990032AE0F9AE
:1017DB00120FE2E50A2EF50AE50B3FF50BC3E50AFE
:1017EB0094F8E50B9407507890032AE0F87900E819
:1017FB0075F002A4C8AAF075F000A42AFA75F002DD
:10180B00E9A42AF9742028F582740239F583E0F5EE
:10181B0008A3E0F509750C08750D00780C120B4B3D
:10182B007403120CFCAC82AD83AA0AAB0BA90E128B
:10183B000DEA7402120AFC7401120CFCE064FF70D6
:10184B0004A3E064FF6003021603801485108285F5
:10185B0011837400F080098510828511837400F068
:10186B00851082851183E0700A90032AE0F9120F2C
:10187B008880237409120CFCE0F8A3E0F9E84970A6
:10188B00157A0190032AE0F9120FA0A90E120F8806
:10189B00E50E90032AF0851082851183E0F9740B15
:1018AB00120AFC7F0702099574F4120764EAFEEB37
:1018BB00FF75087980020508E508C3947F50237CE7
:1018CB0000EEFAEFFBA908120F8E8A0A8B0BA80AFF
:1018DB00A90BE8FAE9FBE84960DCE50890032BF07B
:1018EB008023EE5400F8EF5480F9E849700DEE4474
:1018FB0000FAEF4480FB120F70800A90032B7400E8
:10190B00F07A007B007F0402099574F2120764746D
:10191B00F8120B5E890A8A088B098C0BE50824F8F0
:10192B00F508E50934FFF509750C08750D00780C01
:10193B00120B4B7402120CFCAC82AD83AA08AB09E0
:10194B00A90A120DEA7402120AFCE50B7027740641
:10195B00120CFC7400F0A37400F07404120CFCACB9
:10196B0082AD83E5082404FAE5093400FBA90A12C9
:10197B000F52021A067402120CFCE02403F50CA39E
:10198B00E03400F50D7402780C120CB4E50C75F014
:10199B0004A4C50CA8F075F000A428F875F004E5B4
:1019AB000DA428F50DE50C2408FEE50D3400FF858C
:1019BB0010828511837400F0A37400F0851082856A
:1019CB001183AC82AD83AA08AB09A90A120F52E5A9
:1019DB000AA80A7900E875F002A4C8AAF075F0000D
:1019EB00A42AFA75F002E9A42AF9742C28F582745A
:1019FB000239F583E02EF0A3E03FF07408120AFCE5
:101A0B007F0602099574F412076474FE120B5E854F
:101A1B001082851183ECF0A3EDF08908EAFEEBFF51
:101A2B00EE24FCFEEF34FFFF851082851183AC8220
:101A3B00AD83EEFAEFFBA908121036750A02750B8F
:101A4B0000780A120B4B7402120CFCAC82AD83EEC5
:101A5B00FAEFFBA908120DEA7402120AFC85108238
:101A6B00851183E0FAA3E0FB7402120AFC7F0402E7
:101A7B00099574F6120764EAFEEBFF8C828D83EEF8
:101A8B00F8EFF97A047B0012088CEAF508E5824539
:101A9B0083701BEE75F0FFA4CEA8F075F000A428A0
:101AAB00F875F0FFEFA428FFEEFAEFFB80217A0028
:101ABB007B00800BE0F87900EA28FAEB39FBA3EE08
:101ACB00F8EFF9E824FFFEE934FFFFE84970E5E59C
:101ADB000860297509007404C39508F8740095090A
:101AEB00F9E875F0FFA4C8ACF075F000A42CFC75F8
:101AFB00F0FFE9A42CF9EA28FAEB39FB7F02020983
:101B0B009574F112076474FC120B5E890E8A088BB4
:101B1B0009ECFEEDFF750A00750B00EE2403F50CC6
:101B2B00EF3400F50D7402780C120CB4AE0CAF0D43
:101B3B00EEF8EFF9E824FFFEE934FFFFE849605EB9
:101B4B00750C04750D00780C120B4B7402120CFC07
:101B5B00AC82AD83AA08AB09A90E120DEA7402126E
:101B6B000AFCE5082404F508E5093400F5097800BA
:101B7B00E8C3940450BA880C750D0085108285114A
:101B8B0083E582250CF582E583350DF583E0FA7B41
:101B9B0000E50A2AF50AE50B3BF50B0880D2AA0AE9
:101BAB00AB0B7404120AFC7F0702099574F412073D
:101BBB0064E9FE8A088B0974027808120CB4EEF8FB
:101BCB007900E875F000A4C8AAF075F002A42AFA0F
:101BDB0075F000E9A42AF9E50828F508E50939F5B7
:101BEB0009750A01750B00780A120B4BAA08AB0991
:101BFB00120DF07402120AFC7F0402099574F412A0
:101C0B000764E9FE8A088B09740C120CFCE0F50AD8
:101C1B00A3E0F50B74027808120CB4EEF87900E827
:101C2B0075F000A4C8AAF075F002A42AFA75F000AA
:101C3B00E9A42AF9E50828F508E50939F509780A30
:101C4B00120B4BAA08AB09120DF07402120AFC7F9F
:101C5B000402099574F712076474FC120B5EE9FE1B
:101C6B008C828D83E0851082851183F08C828D832D
:101C7B00A3E0C0E07401120CFCD0E0F07402120C73
:101C8B00FC74FFF07403120CFC74FFF0851082855A
:101C9B001183AC82AD83EEF9120F527404120AFC5D
:101CAB007F0102099574F012076474FC120B5E89B4
:101CBB000B8A088B09ECFEEDFFA808A9097A047BB7
:101CCB000012088CEAF50A7414120CFCE0F50EA352
:101CDB00E0F50FE50A7003021D8E74027808120CF2
:101CEB00B4E50875F004A4C508A8F075F000A428A5
:101CFB00F875F004E509A428F509750C04750D00B9
:101D0B00780C120B4B7402120CFCAC82AD83AA083C
:101D1B00AB09A90B120DEA7402120AFC803B850E6B
:101D2B0082850F83E0C0E0850A0C750D008510825B
:101D3B00851183E582250CF582E583350DF583D07E
:101D4B00E0F0850E82850F83A385820E85830F05B8
:101D5B000AEE24FFFEEF34FFFFE50AC394045004A0
:101D6B00EE4F70BA851082851183AC82AD83AA08C1
:101D7B00AB09A90B120F52E5082404F508E5093449
:101D8B0000F509EEF8EFF97A047B0012088CEAF5FE
:101D9B000A8E0C8F0D7402780C120CB4AE0CAF0DB6
:101DAB00EE4F605D8E0C8F0D780C120B4BAC0EADA5
:101DBB000FAA08AB09A90B120E267402120AFCEE2D
:101DCB00F8EFF9E875F004A4C8AAF075F000A42A9E
:101DDB00FA75F004E9A42AF9E50828F508E50939AC
:101DEB00F509EE75F004A4CEA8F075F000A428F860
:101DFB0075F004EFA428FFE50E2EF50EE50F3FF569
:101E0B000FE50A60747F00750C04750D00780C12D9
:101E1B000B4B7402120CFCAC82AD83AA08AB09A964
:101E2B000B120DEA7402120AFC8031850E82850FAB
:101E3B0083E0C0E08F0C750D00851082851183E562
:101E4B0082250CF582E583350DF583D0E0F0850E08
:101E5B0082850F83A385820E85830F0FAE0A74FFD5
:101E6B002EF50AEE70C5851082851183AC82AD8389
:101E7B00AA08AB09A90B120F527404120AFC7F08B3
:101E8B0002099574F012076474FB120B5EE985105E
:101E9B0082851183F08A0E8B0F8C0B7415120CFC40
:101EAB00E0F508A3E0F509A808A9097A047B00125C
:101EBB00088CEAF50A7417120CFCE0FEA3E0FFE5B0
:101ECB000A7003021F7A850A0C750D00C3E508958D
:101EDB000CF508E509950DF509750C04750D0078E1
:101EEB000C120B4B7403120CFCAC82AD83AA08AB27
:101EFB0009A90B120DEA7402120AFC8049750C0138
:101F0B00750D00780C120B4B850A0C750D007403C4
:101F1B00120CFCE582250CFCE583350DFDAA0EABFE
:101F2B000F7402120CFCE0F9120DEA7402120AFC97
:101F3B00E50E2401F50EE50F3400F50F050AEE242E
:101F4B00FFFEEF34FFFFE50AC394045004EE4F701D
:101F5B00AC7401120CFCAC82AD83AA08AB09A90BC3
:101F6B00120F52E5082404F508E5093400F509EED3
:101F7B00F8EFF97A047B0012088CEAF50A8E0C8FC5
:101F8B000D7402780C120CB4AE0CAF0D8051750CA5
:101F9B0004750D00780C120B4B7403120CFCAC8205
:101FAB00AD83AA0EAB0F7402120CFCE0F9120DEA12
:101FBB007402120AFCE50E2404F50EE50F3400F54D
:101FCB000F7401120CFCAC82AD83AA08AB09A90BF0
:101FDB00120F52E5082404F508E5093400F509EE63
:101FEB00F8EFF9E824FFFEE934FFFFE849709FE5BD
:101FFB000A70030220827E00750C04750D00780CAC
:10200B00120B4B7403120CFCAC82AD83AA08AB0908
:10201B00A90B120DEA7402120AFC803F750C0175B4
:10202B000D00780C120B4B8E0C750D007403120CFB
:10203B00FCE582250CFCE583350DFDAA0EAB0F7478
:10204B0002120CFCE0F9120DEA7402120AFCE50E06
:10205B002401F50EE50F3400F50F0EAF0A74FF2FB8
:10206B00F50AEF70B77401120CFCAC82AD83AA08B1
:10207B00AB09A90B120F527405120AFC7F08020957
:10208B009574F112076474F6120B5E7408120CFC53
:10209B00EAF0A3EBF08908ECFEEDFF741B120CFCCD
:1020AB00E0F50EE508A8087900E875F002A4C8AAC7
:1020BB00F075F000A42AFA75F002E9A42AF974204D
:1020CB0028F582740239F583E0F50AA3E0F50B7568
:1020DB0009007408120CFCE0F8A3E0F98510828566
:1020EB001183E8F0A3E9F07402120CFCEEF0A3EFFD
:1020FB00F0851082851183AC82AD83AA0AAB0BA944
:10210B0008120F52750C08750D00780C120B4B74DE
:10211B0002120CFCAC82AD83AA0AAB0BA908120D00
:10212B00EA7402120AFC851082851183E0F8A3E0A1
:10213B00F97408120CFCE0687003A3E069600302F9
:10214B00226A7402120CFCE06E7003A3E06F600352
:10215B0002226AE50E70030222147419120CFCE0C1
:10216B00F50CA3E0F50DAC0CAD0DEEFAEFFB120F79
:10217B005E7404120CFCEAF0A3EBF0E50A2408F5FC
:10218B000AE50B3400F50BE50C450D6017780C12C6
:10219B000B4BEEFCEFFDAA0AAB0BA908120FFA745E
:1021AB0002120AFCEEFCEFFDAA0AAB0BA908120FF8
:1021BB00588A0C8B0DA80CA90D7404120CFCE0684A
:1021CB007003A3E06970457404120CFCE0FCA3E0FF
:1021DB00FDAA0AAB0BA908120F648A0C8B0DA80C75
:1021EB00A90D7404120CFCE0687003A3E069701C69
:1021FB00851082851183E0FCA3E0FDAA0AAB0BA935
:10220B0008120FE275090180037509017402120CA3
:10221B00FCC3E094F4A3E094FF40077EFC7FFF0235
:10222B0023527402120CFCE02403F50AA3E03400E1
:10223B00F50B7402780A120CB4E50A75F004A4C508
:10224B000AA8F075F000A428F875F004E50BA42893
:10225B00F50BE50A2408FEE50B3400FF022352744C
:10226B0002120CFCC3E094F4A3E094FF40067EFC46
:10227B007FFF803A7402120CFCE02403F50AA3E002
:10228B003400F50B7402780A120CB4E50A75F004ED
:10229B00A4C50AA8F075F000A428F875F004E50BA6
:1022AB00A428F50BE50A2408FEE50B3400FFE5082E
:1022BB00A8087900E875F002A4C8AAF075F000A48C
:1022CB002AFA75F002E9A42AF9742028F58274021F
:1022DB0039F583E0F8A3E0F97400C398F874089912
:1022EB00F9C3E89EE99F5033E508A8087900E87523
:1022FB00F002A4C8AAF075F000A42AFA75F002E95E
:10230B00A42AF9742028F582740239F583E0F8A326
:10231B00E0F97400C398FE740899FFE508A80879E2
:10232B0000E875F002A4C8AAF075F000A42AFA75AB
:10233B00F002E9A42AF9742C28F582740239F5838A
:10234B00E02EF0A3E03FF0E508A8087900E875F06F
:10235B0002A4C8AAF075F000A42AFA75F002E9A449
:10236B002AF9742028F582740239F583E02EF0A344
:10237B00E03FF0A909740A120AFC7F07020995C015
:10238B0082C0837900800109E9C39403502CE9FCD6
:10239B007D00EC75F002A4CCA8F075F000A428F831
:1023AB0075F002EDA428FD74D82CF58274073DF569
:1023BB0083E06A7003A3E06B70CDD083D082020AF6
:1023CB00C974F41207648908EAFEEBFFECFAEDFB23
:1023DB00120FE8E9F8E8C39403503EE508880A7544
:1023EB000B00742C250AF5827403350BF583E50875
:1023FB00F0E8F87900E875F002A4C8AAF075F000CF
:10240B00A42AFA75F002E9A42AF9742F28F582742C
:10241B000339F583EEF0A3EFF07F04020995C08238
:10242B00C083120FA6E9D083D082020AC9C082C032
:10243B00839005BEE0F9E9FA7B00EA75F002A4CAC5
:10244B00A8F075F000A428F875F002EBA428FB7433
:10245B00BE2AF58274033BF583E0FAA3E0FBE4EBC1
:10246B00FA65C27008099005BEE06970C9D083D0C7
:10247B0082020AC9C082C08353FF3F85FFFF53F11D
:10248B00FE43F30C53F2F375868075C4807A6B7B35
:10249B00038A828B83A3A37470F08A828B83A3A39A
:1024AB00A374C1F08A828B83A3A3A3A3E0541FF070
:1024BB008A828B83A3A3A3A3E08A828B83A3A3A388
:1024CB00A3F08A828B83A3A3A3A3A3A3E0C2E7F009
:1024DB008A828B83A3A3A3A3A3A3E08A828B83A368
:1024EB00A3A3A3A3A3F08A828B83A3A3A3A3A3A3D6
:1024FB00E0549FF08A828B83A3A3A3A3A3A3E08AB8
:10250B00828B83A3A3A3A3A3A3F08A828B83A3A30E
:10251B00A3A3A3A3E054E0F08A828B83A3A3A3A37A
:10252B00A3A3E0440FF08A828B83A3A3A3A3A3A34B
:10253B00A3E0543FF08A828B83A3A3A3A3A3A3A3FB
:10254B00E0D2E6F08A828B83A3A3A3A3A3A3A3E089
:10255B0054CFF08A828B83A3A3A3A3A3A3A3E08A64
:10256B00828B83A3A3A3A3A3A3A3F08A828B83A3AE
:10257B00A3A3A3A3A3A3E0C2E3F08A828B83A3A3A9
:10258B00A3A3A3A3A3E0D2E3F08A828B83A3A3A389
:10259B00A3A3A3A3E0C2E2F08A828B83A3A3A3A38A
:1025AB00A3A3A3E08A828B83A3A3A3A3A3A3A3F0D8
:1025BB008A828B83A3A3A3A3A3A3A3E054FCF08AD7
:1025CB00828B83A3A3A3A3A3A3A3E0D2E1F07A639B
:1025DB007B038A828B837470F08A828B83A374C192
:1025EB00F08A828B83A3A3A3A3E0541FF08A828B70
:1025FB0083A3A3A3A3E08A828B83A3A3A3A3F08AC1
:10260B00828B83A3A3A3A3A3A3E0C2E7F08A828B4D
:10261B0083A3A3A3A3A3A3E0D2E7F08A828B83A314
:10262B00A3A3A3A3A3E0549FF08A828B83A3A3A3AA
:10263B00A3A3A3E0D2E6F08A828B83A3A3A3A3A3D5
:10264B00A3E054E0F08A828B83A3A3A3A3A3A3E00C
:10265B00440EF08A828B83A3A3A3A3A3A3A3E0546A
:10266B003FF08A828B83A3A3A3A3A3A3A3E08A82B5
:10267B008B83A3A3A3A3A3A3A3F08A828B83A3A37C
:10268B00A3A3A3A3A3E054CFF08A828B83A3A3A31A
:10269B00A3A3A3A3E0D2E4F078BE7903E4E9F88A1C
:1026AB00828B83A3A3F08A828B83A3A3A374BEF034
:1026BB008A828B83A3A3A3A3A37400F08A828B8348
:1026CB00A3A3A3A3E054E0F08A828B83A3A3A3A3C9
:1026DB00E0D2E0F08A828B83A3A3A3A3A3A3A3E0FE
:1026EB00C2E3F08A828B83A3A3A3A3A3A3A3E08A51
:1026FB00828B83A3A3A3A3A3A3A3F08A828B83A31D
:10270B00A3A3A3A3A3A3E0C2E2F08A828B83A3A318
:10271B00A3A3A3A3A3E08A828B83A3A3A3A3A3A3B3
:10272B00A3F08A828B83A3A3A3A3A3A3A3E054FC4C
:10273B00F08A828B83A3A3A3A3A3A3A3E0D2E1F08C
:10274B00D083D082020AC9C082C083EA241BF582DF
:10275B00EB3400F583E0F8A3E0F99007CAE8F0A3A7
:10276B00E9F08A828B83A3E06403600A8A828B83FD
:10277B00A3E06404700575C2D8800375C23B8A82DE
:10278B008B83A3E0600B14601314601B1460238015
:10279B002C75C5089007C67423F0802A75C509905F
:1027AB0007C67412F0801F75C50A9007C67409F02E
:1027BB00801475C50A9007C67406F0800975C50BA1
:1027CB009007C67403F08A828B83A3A3E0600D7518
:1027DB00C44243F310C28543FD20800375C40290AD
:1027EB0070C1E0F879009003BEF0A3E9F075D1F762
:1027FB0075D6087C007D02E5C264FFF97ABE7B03C7
:10280B001210544386409007C97400F09007C874A7
:10281B0000F0D083D082020AC974F51207647800E5
:10282B0079000228C39005BEE0FE7F00EE75F00232
:10283B00A4CE85F00875F000A42508F50875F00204
:10284B00EFA42508FF74BE2EF58274033FF583E0D9
:10285B00FEA3E0FFEE8A828B83F08A828B83A3AA8E
:10286B0082AB83E5C2FE7F0064FFFEEF6400FFE4F2
:10287B00CEFF9005BEE0F508750900E50875F0027E
:10288B00A4C50885F00A75F000A4250AF50A75F0B1
:10289B0002E509A4250AF50974BE2508F58274031F
:1028AB003509F583EEF0A3EFF09005BEE02401F0BF
:1028BB00E82401F8E93400F9C3E89CE99D5039900C
:1028CB0005BEE0FE7F00EE75F002A4CE85F0087524
:1028DB00F000A42508F50875F002EFA42508FF7495
:1028EB00BE2EF58274033FF583E0FEA3E0FFE4EF19
:1028FB00FE65C27003022830C285E8FAE9FB7F034C
:10290B0002099574F0120764EAF8EBF99007C4E03A
:10291B00FA7B0074C22AF58274073BF583E0FA7BDD
:10292B0000EC2AFAED3BFBC3EA9401EB9401400760
:10293B007A007B00022AAFA2AFE433F50BC2AF9053
:10294B0007C4E0FE8E0875090074C22508F5827471
:10295B00073509F583E0F50A850B0CE50BA2E09230
:10296B00AF7A007B008055E82AF582E93BF583E0DE
:10297B00C0E0EEF50E750F00E50E75F000A4C50E68
:10298B00AFF075F001A42FFF75F000E50FA42FF544
:10299B000F850A0875090074C22508F508740535FA
:1029AB0009F509E508250EF582E509350FF583D004
:1029BB00E0F0050AEA2401FAEB3400FBC3EA9CEBD6
:1029CB009D40A4A2AFE433F50BC2AF9007C4E06EF9
:1029DB007003022A6FAF0BE50BA2E092AF9007C416
:1029EB00E0FE8E0875090074C22508F58274073560
:1029FB0009F583E0F50A7A007B008059E82AF58215
:102A0B00E93BF583E0C0E0EEF50E750F00E50E75C2
:102A1B00F000A4C50E85F00875F001A42508F50893
:102A2B0075F000E50FA42508F50F850A0875090058
:102A3B0074C22508F50874053509F509E508250E56
:102A4B00F582E509350FF583D0E0F0050AEA24019C
:102A5B00FAEB3400FBC3EA9CEB9D40A0A2AFE4333E
:102A6B00F50BC2AFE50A8E0875090074C22508F58F
:102A7B008274073509F583E50AF08E08750900E5C0
:102A8B00086401F8E5096400F974C228F58274073B
:102A9B0039F583E070069007C97401F0A80BE50BBC
:102AAB00A2E092AF7F0802099574F61207647800D2
:102ABB0079007E009005BEE0FA7B00EA75F002A477
:102ACB00CAACF075F000A42CFC75F002EBA42CFB47
:102ADB0074BE2AF58274033BF583E0FAA3E0FBE4B2
:102AEB00EBFA65C27061120EA4E9F89005BFE068BD
:102AFB006019E89005BFF09005C0E07006E5959071
:102B0B0005C1F09005C07421F0802F9005C0E060E6
:102B1B00299005C1E0F8E595C398F89005C0E0F958
:102B2B00E8C399500F9005C0E0C398F0E595900568
:102B3B00C1F080069005C07400F0120EC88A088B95
:102B4B0009A808A90980069005C07400F0C3E89491
:102B5B00F0E9940040047E01801BC3E89470E99473
:102B6B000040067E02D285800CE84960089005C0C3
:102B7B00E070027E049007C5E0600B9007C57400FF
:102B8B00F0D3EE92E4FE9007C8E06019E595F8905B
:102B9B0007C7E0C8C398F89007C6E0C398500690E3
:102BAB0007C87400F09007C9E07003022C899007E6
:102BBB00C8E06003022C897C6B7D039007C974000D
:102BCB00F09007C4E0F87900E875F000A4C8AAF00B
:102BDB0075F001A42AFA75F000E9A42AF974C22849
:102BEB00F8740539F9E4E9F88C828D83F09007C409
:102BFB00E0F87900E875F000A4F8AAF075F001A4EC
:102C0B002AFA75F000E9A42AF974C228F874053978
:102C1B00F9E88C828D83A3F09007C4E0F8790074F7
:102C2B00C228F582740739F583E08C828D83A3A3C8
:102C3B00A3A3A3F08C828D83A3A3A3A3E054E0F002
:102C4B009007C4E0F98C828D83A3A3A3A3E08C82AD
:102C5B008D83A3A3A3A3F09007C4E06401F0A2AFFC
:102C6B00E433F8C2AF75D61000E5D6A2E450F9757F
:102C7B00D1EF75D710E8FFE8A2E092AF803AA2AF90
:102C8B00E433FAC2AF9007C4E0F8790074C228F5B8
:102C9B0082740739F583E06018E5D6A2E44012E5AB
:102CAB00D1A2E4400C8A08EAA2E092AF120ECE80C9
:102CBB00078A09EAA2E092AFEE601E9007CAE0F81D
:102CCB00A3E0F9E8496012EEFA79009007CAE0F840
:102CDB00A3E0F583888212106E7F0202099574F7C8
:102CEB001207647A007B009005BEE0F87900E87566
:102CFB00F002A4C8ACF075F000A42CFC75F002E94E
:102D0B00A42CF974BE28F582740339F583E0F8A37B
:102D1B00E0F9E4E9F865C2704E78007900803FE88D
:102D2B00FCE9FDEC75F002A4CCAEF075F000A42E1E
:102D3B00FE75F002EDA42EFD74BE2CF58274033DDE
:102D4B00F583E0FCA3E0FDE4EDFC65C27008EA242A
:102D5B0001FAEB3400FBE82401F8E93400F9C3E88D
:102D6B009400E9940140B87F01020995C082C083A9
:102D7B0075D1EF9007C4E0F879006401F8E96400BD
:102D8B00F974C228F582740739F5837400F0900743
:102D9B00C57401F0E5959007C7F09007C87401F072
:102DAB009007C4E0F8790074C228F582740739F5EE
:102DBB0083E060069007C97401F0D083D082020AC9
:102DCB00C9C082C083120EAAD083D082020AC974F2
:102DDB00F7120764E9FE7003120EB079007F01024F
:102DEB00099574F7120764E9FE7005120EB680049C
:102DFB007A007B007F0102099574F7120764E9FEE4
:102E0B007005120EBC80047A007B007F01020995CD
:102E1B00C082C083120EC2D083D082020AC974F75B
:102E2B0012076474E3120B5EE9FEEE9007CDF0859A
:102E3B0010828511837401F07401120CFC7400F084
:102E4B007402120CFC7400F07403120CFC7400F08E
:102E5B00A37400F0740A120CFC7400F0A37400F05D
:102E6B007412120CFC7400F0A37400F07405120CB5
:102E7B00FC740AF07416120CFC7401F0741B120C27
:102E8B00FC7410F0A3740FF0851082851183AA8255
:102E9B00AB837900120EDAE9EEF9120D36E97901FE
:102EAB007AA77B08120E4A79037AB57B08120E4A71
:102EBB0079047ACC7B07120E4A120DBA7CE87D039B
:102ECB007A017B009007CDE0F9120D12E97C647D4D
:102EDB00007A087B009007CDE0F9120D12E97CE82F
:102EEB007D037A047B009007CDE0F9120D0CE97C91
:102EFB00B87D0B7A027B009007CDE0F9120D0CE93F
:102F0B007CF47D017B327A0A7907121060741D12F2
:102F1B000AFC7F0102099574F5120764890AEAFE1F
:102F2B00EBFFEE5400F8EF5480F9E8496030800F66
:102F3B00AA08AB09120EFEAA08AB09121048E9A9A0
:102F4B000A1210308A088B09A808A9098808890970
:102F5B00E84970DCEE6400FAEF6480FB8066EEA259
:102F6B00E050177C2B7D007AC67B087900120EE6A9
:102F7B00EE6401FAEF6400FB804AEE540260157AAE
:102F8B00007907120E20E943F2C0EE6402FAEF64F7
:102F9B0000FB8030EE54086010120F16120F1CEE5F
:102FAB006408FAEF6400FB801BEE54046012900778
:102FBB00CDE0F9120D7EEE6404FAEF6400FB8004A1
:102FCB007A007B007F03020995C082C083EAF8EB8D
:102FDB00F988828983E024406019146008146034F6
:102FEB00146026802F88828983A3A3A3E0F9120F94
:102FFB0004802188828983A3A3A3E0FA8882898332
:10300B00A3A3E0F9120F0A800BE82402FAE93400BB
:10301B00FB120F22D083D082020AC974F612076406
:10302B0074BF120B5EE9FE75084014600D14600A44
:10303B0024FE600624F46034803275084075090064
:10304B00AC08AD09851082851183AA82AB83790008
:10305B00120EE0EAF508750900AC08AD098510827F
:10306B00851183AA82AB837900120EE67441120A92
:10307B00FC7F0202099574F7120764E9FEEAFFEE82
:10308B00600302312679047AF17B08120E4AEFA213
:10309B00E750117A087907120E20E979047A027B3E
:1030AB0009120E4AEFA2E050117A087901120E2094
:1030BB00E979047A057B09120E4AEFA2E150117AE5
:1030CB00087902120E20E979047A087B09120E4A5C
:1030DB00EFA2E4500979047A0B7B09120E4AEFA296
:1030EB00E3500979047A0E7B09120E4AEFA2E250E3
:1030FB000979047A117B09120E4A740C5F640C7007
:10310B0003120DE474885F64887003120DE4741C61
:10311B005F60087A087907120E20E97F0102099592
:10312B0074F6120764E9FEEAFF7A047B0012104E74
:10313B008A088B09AA08AB09EA4B60218A828B8328
:10314B0074C1F0EE8A828B83A3A3F0EF8A828B8308
:10315B00A3A3A3F09007CDE0F9121042E97F02027E
:10316B00099574F012076474ED120B5E7A037907FC
:10317B00120D5A8A088B09A808A90990092DE06439
:10318B00FF7004A3E064FF603290092DC3E098A3A5
:10319B00E0995006E8FAE9FB800890092DE0FAA3C4
:1031AB00E0FB90092DC3E098A3E099500A90092DFC
:1031BB00E0FAA3E0FB8004E8FAE9FB90092DE8F0C4
:1031CB00A3E9F0900914C082C0837404120CFCAC08
:1031DB0082AD83D083D082740F120A658808890967
:1031EB00E4F50AF50B780812082F9007DF780C121C
:1031FB000C787808790C1203CB9007E3780C120C3F
:10320B00787808790C1201E585108285118378088E
:10321B00120CA57C068510828511837808120C7818
:10322B0078081205E5E5082430C0E08C0875090024
:10323B007404120CFCE5822508F582E5833509F54B
:10324B0083D0E0F00C8C087509007404120CFCE5BB
:10325B00822508F582E5833509F583742EF00C85FC
:10326B001082851183780C120C789007E77808127E
:10327B000C78780C79081203CB780C1205E5A80CA6
:10328B00A90D7A0A7B0012088CEA2430C0E08C0866
:10329B007509007404120CFCE5822508F582E583A0
:1032AB003509F583D0E0F00C851082851183780CFD
:1032BB00120C789007EB7808120C78780C790812BE
:1032CB0003CB780C1205E5A80CA90D7A0A7B00122A
:1032DB00088CEA2430C0E08C087509007404120CC9
:1032EB00FCE5822508F582E5833509F583D0E0F00E
:1032FB000C8C087509007404120CFCE5822508F58A
:10330B0082E5833509F5837456F00C8C087509003A
:10331B007404120CFCE5822508F582E5833509F56A
:10332B00837400F00C8510828511837808120C7859
:10333B009007EB780C120C787808790C1203CB9071
:10334B0007DF780C120C787808790C1201E57808F5
:10335B001205E5E508AA087904120E567413120A31
:10336B00FC7F0802099574F012076474ED120B5E72
:10337B007A037906120D5A8A088B09A808A90990B5
:10338B00092FE064FF7004A3E064FF603290092F03
:10339B00C3E098A3E0995006E8FAE9FB800890098E
:1033AB002FE0FAA3E0FB90092FC3E098A3E099501C
:1033BB000A90092FE0FAA3E0FB8004E8FAE9FB90FE
:1033CB00092FE8F0A3E9F090091BC082C0837404B5
:1033DB00120CFCAC82AD83D083D082740F120A65C1
:1033EB0088088909E4F50AF50B780812082F90076D
:1033FB00DF780C120C787808790C1203CB9007E36A
:10340B00780C120C787808790C1201E585108285FE
:10341B0011837808120CA57C0685108285118378A0
:10342B0008120C7878081205E5E5082430C0E08C0A
:10343B00087509007404120CFCE5822508F582E579
:10344B00833509F583D0E0F00C8C08750900740402
:10345B00120CFCE5822508F582E5833509F58374AA
:10346B002EF00C851082851183780C120C78900746
:10347B00E77808120C78780C79081203CB780C12C9
:10348B0005E5A80CA90D7A0A7B0012088CEA2430FA
:10349B00C0E08C087509007404120CFCE582250849
:1034AB00F582E5833509F583D0E0F00C8510828534
:1034BB001183780C120C789007EB7808120C787843
:1034CB000C79081203CB780C1205E5A80CA90D7A20
:1034DB000A7B0012088CEA2430C0E08C08750900C6
:1034EB007404120CFCE5822508F582E5833509F599
:1034FB0083D0E0F00C8C087509007404120CFCE509
:10350B00822508F582E5833509F5837456F00C8C1A
:10351B00087509007404120CFCE5822508F582E598
:10352B00833509F5837400F00C851082851183783F
:10353B0008120C789007EB780C120C787808790C41
:10354B001203CB9007EF780C120C787808790C12D9
:10355B0001E578081205E5E508AA087905120E566B
:10356B007413120AFC7F0802099574F7120764742E
:10357B00F0120B5E900922C082C0838510828511E8
:10358B0083AC82AD83D083D0827410120A6574032E
:10359B00120CFCAE82AF838A828B83E0F875F00A43
:1035AB00E88424308E828F83F08E828F83A3AE8249
:1035BB00AF83E875F00A84E5F024308E828F83F0B8
:1035CB008E828F83A3AE82AF838E828F837425F01E
:1035DB008E828F83A3AE82AF838E828F837420F013
:1035EB008E828F83A3AE82AF83740A120CFCAE82E1
:1035FB00AF838A828B83A3A3E0F875F00AE8842457
:10360B00308E828F83F08E828F83A3AE82AF83E85E
:10361B0075F00A84E5F024308E828F83F08E828FD2
:10362B0083A3AE82AF838E828F837443F08E828F9F
:10363B0083A3AE82AF838E828F837420F08E828FB2
:10364B0083A3AE82AF837902851082851183AA8210
:10365B00AB83120E4A7410120AFC7F0102099553B8
:10366B00F4F743FE08020AC974F01207648A088B48
:10367B00098C0A8D0B7412120CFCE0FEA3E0FFEE1A
:10368B004F7003023716C2937905120DDEE5F9A2CE
:10369B00E040F5D2930000C293790B120DDE850842
:1036AB000C85090D850A0E850B0F7410780C120B07
:1036BB0016A90C120DDEA808A909E4E509A809E56D
:1036CB0009A909120DDEA908120DDE7900120DDE13
:1036DB007410120CFCE0F508A3E0F509801B7900CF
:1036EB00120DDEE5F9850882850983F08508828550
:1036FB000983A3858208858309EEF8EFF9E824FF97
:10370B00FEE934FFFFE84970D5D2937F0802099593
:10371B0074F01207648A088B098C0A8D0B741012D3
:10372B000CFCE0F50CA3E0F50D7412120CFCE0F5AB
:10373B000EA3E0F50F780E120B4B780C120B4B7996
:10374B0002AA08AB09AC0AAD0B120DCC7404120A19
:10375B00FC7F0802099574F01207648A0C8B0D8CA0
:10376B000E8D0FE9FE7410120CFCE0F8A3E0F97457
:10377B0010120CFCE8F0A3E9F07412120CFCE0F848
:10378B00A3E0F97412120CFCE8F0A3E9F080077ABD
:10379B00017B00120E3E7412120CFCE0F8A3E0F950
:1037AB00E849700302389DC2937905120DDEE5F9E5
:1037BB00A2E040F5D2930000C2937906120DDED23F
:1037CB00930000C293EEF9120DDE850C08850D09EE
:1037DB00850E0A850F0B74107808120B16A90812A8
:1037EB000DDEA80CA90DE4E50DA80DE50DA90D1234
:1037FB000DDEA80CA90DE50CA90C120DDEA80CA969
:10380B000DE50CF404FFEF60128F08E4F509F50ADF
:10381B00F50B780C7908120BC88008900877780C98
:10382B00120BDB7410120CFCE0F8A3E0F58388821A
:10383B00E0F9120DDE7410120CFCE02401F8A3E089
:10384B003400F97410120CFCE8F0A3E9F01F7412A9
:10385B00120CFCE024FFF0A3E034FFF0EF600E74D9
:10386B0012120CFCE0F8A3E0F9E84970B6D293749D
:10387B0012120CFCE0F8A3E0F9E84970030237A13F
:10388B0074026E700302379A7A0B7B00120E3E02A3
:10389B0037A17F08020995C082C0837905120DDE1E
:1038AB00E5F9A2E040F5D2930000C2937906120D20
:1038BB00DED2930000C29379C7120DDED2930000C3
:1038CB00D083D082020AC974F11207647582EB753A
:1038DB0083FE120AA5C2937905120DDEE5F9A2E06B
:1038EB0040F5D293000079047AFC7B07120E4A78DC
:1038FB00007900801DE8C0E07415120CFCE58228ED
:10390B00F582E58339F583D0E0F0E82401F8E9345A
:10391B0000F9C3E89400E99401A2D265D03340D5F5
:10392B007508007509017808120B4B7417120CFC03
:10393B008582088583097808120B4B90087B120C43
:10394B00D0120DC67404120AFC90080AC082C08300
:10395B007405120CFCAC82AD83D083D08274101230
:10396B000A65900374C082C083851082851183AC75
:10397B0082AD83D083D0827405120A657E007F04EA
:10398B00750E00800AEE2400FEEF3404FF050EE5F1
:10399B000EC394045065E50EA80E7900E875F0048B
:1039AB00A4C8AAF075F000A42AFA75F004E9A42AB9
:1039BB00F97405120CFCE58228F582E58339F58351
:1039CB007808120C78750C01750D00780C120B4BE6
:1039DB007402120CFC85820C85830D780C120B4B38
:1039EB00AA08AB09AC0AAD0B120DC07404120AFC89
:1039FB00851082851183E064FF608AEEFAEFFB92FB
:103A0B00F0758215758301120AA5A2F07F070209D2
:103A1B0095C2F989F9A2F950FC020AC974F0120790
:103A2B00647582E17583FE120AA5900379C082C08A
:103A3B0083740A120CFCAC82AD83D083D0827410D9
:103A4B00120A6579047A1A7B08120E4A120DD27A81
:103A5B00107B27120E3E7A107B27120E3E120DD8CA
:103A6B008A088B09E4F50AF50B7808120B477C28BA
:103A7B007D08740E120CFCAA82AB83120F407404E7
:103A8B00120AFC7904120E507904740A120CFCAA67
:103A9B0082AB83120E4A7A107B27120E3E79047A80
:103AAB00307B08120E4A78007900801DE8C0E07464
:103ABB001F120CFCE58228F582E58339F583D0E0F3
:103ACB00F0E82401F8E93400F9C3E89400E9940123
:103ADB00A2D265D03340D5750C02750D00780C124F
:103AEB000B4B7C3E7D08740C120CFCAA82AB831230
:103AFB00105A7402120AFC7C007D007E007F007459
:103B0B0001120CFCECF0A3EDF0A3EEF0A3EFF07EB2
:103B1B00007F00806B750C00750D01780C120B4B40
:103B2B007421120CFC85820C85830D780C120B4BC7
:103B3B007405120CFC120CD0120DC67404120AFC84
:103B4B00900877780C120C787401120CFC780C121C
:103B5B000BEEEEFCEFFD740C120CFCAA82AB831285
:103B6B000F287411120CFC7400F07904740A120CF7
:103B7B00FCAA82AB83120E4AEE2401FEEF3400FF47
:103B8B008E0C8F0DE4F50EF50F7808790C120C588E
:103B9B00408379047A417B08120E4A900389C082D4
:103BAB00C0837405120CFCAC82AD83D083D08274BD
:103BBB0005120A6590084FC082C083741A120CFC60
:103BCB00AC82AD83D083D0827405120A657CFE7DF6
:103BDB00007E007F007401120CFCECF0A3EDF0A34F
:103BEB00EEF0A3EFF0750C02750D00780C120B4B79
:103BFB007C547D08740C120CFCAA82AB8312105AF5
:103C0B007402120AFC8510828511837401F07E0008
:103C1B007F008008EE2401FEEF3400FF8E0C8F0D29
:103C2B00E4F50EF50F7808790C120C584003023CA2
:103C3B00F8750C05750D00780C120B4B7407120CF4
:103C4B00FC85820C85830D780C120B4B7405120CC2
:103C5B00FC120CD0120DC07404120AFC750C057505
:103C6B000D00780C120B4B741C120CFCAC82AD8348
:103C7B007407120CFCAA82AB83120F2E7402120A69
:103C8B00FC8A0C8B0DE50C450D600B8510828511A4
:103C9B00837400F08057EEFCEFFD740C120CFCAA41
:103CAB0082AB83120F287411120CFC7400F0790490
:103CBB00740A120CFCAA82AB83120E4A9008777816
:103CCB000C120C787401120CFC780C120BEE7401B4
:103CDB00120CFC780C120C7890087F780C120C14D8
:103CEB00E50C450D450E450F7003023C1F851082F8
:103CFB00851183E0600B79047A577B08120E4A809A
:103D0B000979047A687B08120E4A92F075821F7546
:103D1B008301120AA5A2F07F08020995C082C08315
:103D2B009011337400F0A37400F09011357435F0DA
:103D3B00A37409F0901135E0F8A3E0F58388827441
:103D4B0048F0A37402F0900B7D7402F0A37480F022
:103D5B00900B7F74B4F0A37405F0D083D082020A69
:103D6B00C974F61207647A017B00120FB28A088BB2
:103D7B0009AE08AF09EE4F7003120D66A2AFE43324
:103D8B00F508C2AFEE24FEF8EF34FFF9901135E8D9
:103D9B00F0A3E9F0EEFAEFFB120FAC9003117401F4
:103DAB00F0A808E508A2E092AF7F0202099574F330
:103DBB001207647C007D007F00EA2402FAEB3400DA
:103DCB00FBA2AFE433FEC2AF900311E06009C3EA7C
:103DDB009411EB9400500A901135E0F8A3E0F980B0
:103DEB0004787F790B88828983E05400F508A3E07F
:103DFB005480F509E508450960057F00023E8EEF0A
:103E0B0060678C828D83E0F50AA3E0F50BE50A541D
:103E1B0000F508E50B5480F50988828983E0250AB3
:103E2B00F50AA3E0350BF50BE50A54FFF50AE50B94
:103E3B00547FF50BE508450AF508E509450BF5092F
:103E4B008C828D83E508F0A3E509F08C828D83E0ED
:103E5B0054FFF508A3E0547FF509C3E5089AE5097B
:103E6B009B4020ECF8EDF9804988828983E054FF70
:103E7B00FCA3E0547FFDC3EC9AED9B50357F01E82A
:103E8B00FCE9FD88828983E054FFF508A3E0547FA9
:103E9B00F509E82508F8E93509F988828983E0F501
:103EAB0008A3E0F509E50845096003023DF0780039
:103EBB007900E8497003023F4788828983E054FF09
:103ECB00FCA3E0547FFDECC39AFCED9BFDC3EC948B
:103EDB0004ED94004020E82AF582E93BF583ECF0F1
:103EEB00A3EDF0EA4400FAEB4480FB88828983EA75
:103EFB00F0A3EBF0800D88828983E04400F0A3E00F
:103F0B004480F0900311E0602B901135E0FAA3E0B0
:103F1B00FBE86A7002E96B701B88828983E054FFAF
:103F2B00FAA3E0547FFBE82AFAE93BFB901135EA50
:103F3B00F0A3EBF0E82402F8E93400F9EEFCEEA272
:103F4B00E092AFE8FAE9FB7F0502099574F71207D7
:103F5B0064EA24FEFEEB34FFFFC3EA9435EB9409CD
:103F6B004009C3EA9435EB94114003120D668E821F
:103F7B008F83E05400F8A3E05480F9E849700312F2
:103F8B000D66A2AFE433FAC2AF8E828F83E054FF8B
:103F9B00F0A3E0547FF0901135E0F8A3E0F9C3EE05
:103FAB0098EF99500CEEF8EFF9901135E8F0A3E982
:103FBB00F0EAF8EAA2E092AF7F01020995C082C055
:103FCB0083E5958A828B83F0E5968A828B83A3F0B7
:103FDB00E5978A828B83A3A3F08A828B83A3A3A307
:0A3FEB007400F0D083D082020AC9EE
:1040000000000000000000000000004E440000001E
:10401000000402000202000000203E28287C20004C
:1040200000246A4A745424000C52321C2854502034
:1040300020545A6A4470404000040200000000000E
:1040400000000018244280000080423C0000000074
:104050000008183C14180800000010101810100078
:104060000040C00000000000080808080808080018
:104070000040400000000000004020100804020042
:10408000003C444242443C00000000447E000000EA
:1040900000446262524A4C0000644242525C240076
:1040A00000102824647E0000006C4C4C4C4C300006
:1040B000003C544A4A4C3000000404641C040000D4
:1040C000007C4A4A52522C00005C525252523C0030
:1040D0000000004848000000000000C84800000040
:1040E000000018282444420000181818181800006E
:1040F000004244242818000000040262520A0C0006
:10410000003C546A667C6418006018141C3040003F
:10411000007C5454544C7C00003C444242424200D7
:10412000007C444444443C00007C5454545C4400AF
:10413000007C141414140404103C424242426400F3
:10414000007C101010107C000000447C7C440000B7
:1041500000808084847C0400007C100814244000CB
:10416000007C7C4040404000007C1860100C7C00CB
:10417000007C040810207C00003C424242423C107B
:10418000007C141414140C00003C626262C2BC0077
:10419000007C1414142C4C00004C4A4A5252240047
:1041A0000404047C44040400003C404040403C00C3
:1041B0000004186030080400001C60101C601C0023
:1041C000004024181824400000040C70500C040017
:1041D000004464544C444000000000FE8282800091
:1041E000000204083040800000808282FE0000004F
:1041F00000000101010100008080808080808080BB
:10420000000101010100000000606858587840403A
:10421000007E504848483000003048484848000078
:104220000030484848487E400030686868681000A0
:104230000008487C4C0C04000090E8E8E8D0C80076
:10424000007E0808080870000000087840000000A0
:104250000080808888FA0000007C201038484800E0
:104260000000007E40000000087808087008780010
:1042700000780808080870000030484848483000B6
:1042800008F8484848483000003048484848F80096
:1042900000487850080808000040585868686000D6
:1042A0000008087C484840000838404040487840B2
:1042B00000081860201808000818602838601808DE
:1042C0000008483830480800008898A060180800A6
:1042D0000048486858484000000000001866800008
:1042E00000000000FF0000000080661800000000D1
:0842F0000001010102020200BD
:1043000000000000000000000000000000000000AD
:10431000000000F800000000000000330000000072
:1043200000100C02100C0200000000000000000051
:104330000040C07840C0780000043F04043F0400FF
:1043400000708888FC08300000182020FF211E0023
:10435000F008F0806018000000310C031E211E00E0
:1043600000F00888700000001E21232C192721105E
:1043700000120E000000000000000000000000001D
:10438000000000E0180402000000000718204000B0
:1043900000020418E00000000040201807000000A0
:1043A000404080F0804040000202010F0102020004
:1043B00000000000E0000000000101010F01010108
:1043C00000000000000000000090700000000000ED
:1043D00000000000000000000001010101010100D7
:1043E000000000000000000000303000000000006D
:1043F00000000000C0380400006018070000000042
:1044000000E010080810E000000F102020100F003E
:1044100000001010F8000000000020203F202000C5
:10442000007008080808F00000302824222130001D
:1044300000300808088870000018202121221C0084
:104440000000804030F8000000060524243F2424AA
:1044500000F88888880808000019202020110E0024
:1044600000E0108888900000000F112020201F001D
:1044700000180808886818000000003E01000000CD
:104480000070880808887000001C222121221C006E
:1044900000F008080810E0000001122222110F00AD
:1044A000000000C0C000000000000030300000002C
:1044B0000000008000000000000000E0000000009C
:1044C00000008040201008000001020408102000B5
:1044D0000040404040404000000202020202020050
:1044E0000008102040800000002010080402010095
:1044F0000070480808887000000000303700000095
:10450000C030C828E810E000071827282F28170017
:104510000000C038E0000000203C230202273820C1
:1045200008F8888888700000203F202020110E00A5
:10453000C03008080808380007182020201008009C
:1045400008F808080810E000203F202020100F0085
:1045500008F88888E8081000203F20202320180051
:1045600008F88888E8081000203F200003000000B9
:10457000C03008080838000007182020221E02005A
:1045800008F808000008F808203F210101213F2019
:10459000000808F8080800000020203F2020000044
:1045A00000000808F8080800C08080807F00000034
:1045B00008F888C028180800203F2001263820006D
:1045C00008F8080000000000203F202020203000D4
:1045D00008F8F800F8F80800203F013E013F2000ED
:1045E00008F830C00008F808203F200007183F00F6
:1045F000E01008080810E0000F10202020100F0025
:1046000008F808080808F000203F21010101000017
:10461000E01008080810E0000F10282830504F0064
:1046200008F8888888887000203F2000030C30201C
:1046300000708808080838000038202121221C005A
:10464000180808F8080818000000203F20000000A3
:1046500008F808000008F808001F202020201F008C
:104660000878880000C83808000007380E010000EC
:1046700008F800F800F8080000033E013E030000BF
:10468000081868808068180820302C03032C30201C
:104690000838C800C83808000000203F200000008B
:1046A00010080808C83808002038262120201800E3
:1046B000000000FE020202000000007F40404000B7
:1046C000000438C000000000000000010638C000EF
:1046D00000020202FE000000004040407F00000097
:1046E00000000402020400000000000000000000BE
:1046F00000000000000000008080808080808080BA
:1047000000020204000000000000000000000000A1
:10471000000080808000000000192424123F200047
:1047200010F0008080000000003F112020110E00DA
:104730000000008080800000000E11202020110069
:10474000000080808090F000001F202020103F207B
:104750000000808080800000001F24242424170093
:10476000008080E0909020000020203F202000006A
:104770000000808080808000006B9494949360009F
:1047800010F0008080800000203F210000203F20AA
:1047900000809898000000000020203F20200000AA
:1047A000000000809898000000C08080807F00009A
:1047B00010F0000080808000203F24062930200077
:1047C000001010F8000000000020203F2020000012
:1047D0008080808080808000203F20003F20003F3C
:1047E0008080008080800000203F210000203F204A
:1047F0000000808080800000001F202020201F00FB
:10480000808000808000000080FF912020110E0039
:104810000000008080008000000E11202091FF80A9
:10482000808080008080800020203F2120000100C7
:10483000000080808080800000332424242419001C
:10484000008080E0808000000000001F2020100019
:104850008080000000808000001F202020103F206A
:10486000808080008080800000030C300C030000FA
:104870008080008080008080010E300C07380601A7
:1048800000808080008080000020310E2E312000CA
:10489000808080000080808000818678180601007A
:1048A00000808080808080000021302C2221300018
:1048B0000000000000FC020200000000013E404039
:1048C00000000000FF00000000000000FF000000EA
:1048D0000202FC000000000040403E010000000019
:1048E00000020102020402000000000000000000BB
:1049000000000000000000000000000000000000A7
:104910000000000000000000000000000000000097
:104920000000000000000000000000000000000087
:104930000000000000000000000000000000000077
:104940000000000000000000000000000000000067
:104950000000000000000000000000000000000057
:104960000000000000000000000000000000000047
:104970000000000000000000000000000000000037
:104980000000000000000000000000000000000027
:104990000000000000000000000000000000000017
:1049A0000000000000000000000000000000000007
:1049B00000000000000000000000000000000000F7
:1049C00000000000000000000000000000000000E7
:1049D00000000000000000000000000000000000D7
:1049E00000000000000000000000000000000000C7
:1049F00000000000000000000000000000000000B7
:104A00000000000000000000C0C0C0C0C0C0C0C0A6
:104A100080000000000000C0C0C0C0C0C0C00000D6
:104A20000000000000000000000000000000000086
:104A30000000000000000000000000000000000076
:104A4000000000000000000000000000000080C026
:104A5000C0C0C0C0C0C0C0C0C0C0C0C0C0C0800056
:104A600000000000C0C0C0C0C0C0C0000000000006
:104A700000000080808000000000000000000000B6
:104A800000000000000000FEFFFFFFFFFFFFFFFF30
:104A9000FFFEF8E0800000FFFFFFFFFFFF030000C4
:104AA00080C0E0F0F0F8F87878F8F8F8F0F0E080FE
:104AB0000038F8F8F8F8F8E0000000E0F8F8F8F846
:104AC000F8F8F0800000C0F0F8F8F8F83800E4FFDB
:104AD000FFFFFFFFFFC7C7C7C7C7FFFFFFFFFF7F7E
:104AE0003E000000FBFBFBFBFBFBFB0040F8F8FE7D
:104AF000FFFFFFFFFFFBF8F8F800000000000000D8
:104B000000000000000000FFFFFFFFFFFF0401079F
:104B10000F3FFFFFFFFEFCFFFFFFFFFFFF00007ED8
:104B2000FFFFFFFFFFFFCC9E9E9C9F9F9FDFDF0F3D
:104B30000000010F7FFFFFFFFEF8FFFFFF7F0F3F29
:104B4000FFFFFFFFF8FEFFFFFF1F07010000FFFF51
:104B5000FFFFFFFFFF8787C7C7C7FFFFFFFFFEFEFF
:104B6000FC000000FFFFFFFFFFFFFF000000F0FF61
:104B7000FFFFFFFFFFC080C0C0000000000000007A
:104B800000000000000000070707070707000000FB
:104B900000000003070707070707070707000000D3
:104BA00001030707070F0F0F0F0F0F0F0F0703006A
:104BB00000000000000307070707070703000000C5
:104BC00003070707070707030000000000000707A7
:104BD000070707070707070707070707070703036D
:104BE000000000040707070707070700000001038C
:104BF000070F0F0F0F0F0F0701000000000000004C
:104C000000000000000000000000000000000000A4
:104C10000000000000000000000000000000000094
:104C20000000000000000000000000000000000084
:104C30000000000000000000000000000000000074
:104C40000000000000000000000000000000000064
:104C50000000000000000000000000000000000054
:104C60000000000000000000000000000000000044
:104C70000000000000000000000000000000000034
:104C80000000000000000000000000000000000024
:104C90000000000000000000000000000000000014
:104CA0000000000000000000000000000000000004
:104CB00000000000000000000000000000000000F4
:104CC00000000000000000000000000000000000E4
:104CD00000000000000000000000000000000000D4
:104CE00000000000000000000000000000000000C4
:104CF00000000000000000000000000000000000B4
:104D0000C082C0839003BC7400F0A37400F0121042
:104D100012D083D082020AC974F11207648A0C8B04
:104D20000D890E750900750A009003BCE0F8A3E038
:104D3000F9E84970187A117B00120FB29003BCEAAF
:104D4000F0A3EBF079017A877B08120E4AAA0CAB2C
:104D50000D12103CEAF509E509C3941140037509E9
:104D6000107401650E703B85090885080A750B00F3
:104D7000780A120B4BAC0CAD0D9003BCE0FAA3E02B
:104D8000FB12105A7402120AFCE509A80979009076
:104D900003BCE028FAA3E0398A82F5837400F002AC
:104DA0004E529003BCE0FAA3E0FB12103CEAF50877
:104DB000E50825092402F50A750B00AA0AAB0B12B7
:104DC0000FB28A0A8B0BAE0AAF0BEE4F7003024E86
:104DD0005285080A750B00780A120B4B9003BCE051
:104DE000FCA3E0FDEEFAEFFB12105A7402120AFC6B
:104DF00085080A750B00EE250AF582EF350BF58361
:104E00007420F0050885090A750B00780A120B4B0F
:104E1000AC0CAD0D85080A750B00EE250AFAEF35CE
:104E20000BFB12105A7402120AFC85080A750B005B
:104E3000850908750900E50A2508F8E50B3509F923
:104E4000EE28F582EF39F5837400F0EEFAEFFB12ED
:104E50000FACAA0CAB0D74FF250EF9120E927F0752
:104E600002099574F712076474EF120B5EE9FE9065
:104E70000895C082C083851082851183AC82AD8382
:104E8000D083D0827411120A65EEF98510828511E3
:104E900083AA82AB83120E4A7411120AFC7F0102AC
:104EA000099574F6120764E9FF8A08740E2508F55F
:104EB000097A00EFF9120E867E007E00800679FFE7
:104EC000120E7A0EEEC3940D40F47981120E7A80A0
:104ED0000679BD120E7A0EEEC3950940F4EEC39426
:104EE0007250087981120E7A0E80F27981120E7A50
:104EF000800679FF120E7A0EEEC3947E40F47F0294
:104F000002099553F4FBD29243FE04020AC943F10D
:104F10000243F42043F44043F4807812790075FB97
:104F20008075F800742048F5FC89FA020AC9C0822D
:104F3000C08374FE120B5E9003BAC082C0838510DA
:104F400082851183AC82AD83D083D0827402120A31
:104F500065E9600A851082851183E0D2E7F0EAC333
:104F600013F8851082851183E048F0EAA2E050062C
:104F70007C807D0080047C007D007401120CFCE0CC
:104F80004CF053F8F9851082851183E0F5F9A2F908
:104F900050FCA2F950FC53F8F97401120CFCE0F536
:104FA000F9A2F950FCA2F950FC7402120AFCD08359
:104FB000D082020AC9C082C083120E5C120E627ACD
:104FC000707B17120E9879AE120E747902120E745D
:104FD0007910120E747940120E7479B0120E747931
:104FE00081120E7479CF120E7479A1120E7479A603
:104FF000120E7479A8120E74793F120E7479C812C9
:105000000E7479D3120E747900120E7479D5120EC3
:10501000747980120E7479D9120E7479F1120E74AB
:1050200079DA120E747912120E7479DB120E747919
:1050300040120E74798D120E747914120E7479AFB9
:10504000120E74120E80D083D082020AC974F71235
:105050000764E9FEC292FA7900120E6800000000AF
:10506000D2927F0102099574F7120764E9FEC29299
:10507000FA7901120E6800000000D2927F01020945
:105080009574F51207647900120E747910120E747B
:10509000750AB07E007F0080247900120E7AE50840
:1050A0002401F508E5093400F509C3E5089480E515
:1050B00009940040E4EE2401FEEF3400FFC3EE94B7
:1050C00008EF9400500FA90A120E74050A75080023
:1050D00075090080D57F0302099574F6120764896B
:1050E00008EAFE530807C392E7FEAF08740F5EF9A3
:1050F000EEC4540FF509120E7474104509F9120E1E
:105100007474B04FF9120E747F0202099574F21292
:10511000076474F0120B5E890A8A088B09E509C3DB
:105120009420C3945F40030251E385090C750D0080
:10513000E50C24E0F8E50D34FFF9E875F010A4C89B
:10514000AAF075F000A42AFA75F010E9A42AF9E88B
:105150002400FAE93403FB750C10750D00780C126D
:105160000B4B7402120CFCAC82AD837908120DEA71
:105170007402120AFC851082851183AE82AF83759A
:10518000F002E50AA4F50D75F008E508A4F50B7525
:105190000C00AA0BA90D120E86750C0080148E82CD
:1051A0008F83E0F9120E7A8E828F83A3AE82AF8353
:1051B000050CE50CC3940840E5AA0B7401250DF914
:1051C000120E86750C0080148E828F83E0F9120E09
:1051D0007A8E828F83A3AE82AF83050CE50CC394D5
:1051E0000840E57410120AFC7F0602099574F51256
:1051F00007648909EAFEEBFFEEFAEFFB12103CEAC6
:10520000F50AE50AC394114003750A107508008079
:10521000188E828F83E0FBAA08A909120E8C8E8259
:105220008F83A3AE82AF830508E508C3950A40E1EA
:105230007F030209958020000000000000000000AC
:10524000000000000000000000000000000000005E
:1052500000000000000000EAF8EBF9E824FFFAE99A
:1052600034FFFBE84970D0020AC9C082C083120F24
:1052700046D083D082020AC974F7120764740912F7
:105280000CFCE0F8A3E0F9801C8C828D83E08A821C
:105290008B83F08C828D83A3AC82AD838A828B83D7
:1052A000A3AA82AB83E8FEE9FFEE24FFF8EF34FF08
:1052B000F9EE4F70D47F0102099574F6120764E984
:1052C000FE8C088D097808120B4B8E08750900AC0E
:1052D00008AD09120F347402120AFC7F020209950C
:1052E00074F6120764EAFEEBFFEE4F70067A007B5D
:1052F000008046EE2405FAEF3400FB120FB28A0854
:105300008B09A808A909E849602B88828983740061
:10531000F0A37400F088828983A3A3EEF0A3EFF0DA
:1053200088828983A3A3A3A374FFF0E82405FAE984
:105330003400FB80047A007B007F02020995C08262
:10534000C083EA4B700479058020EA24FFF582EBE4
:1053500034FFF583E064FF60047904800DEA24FBE8
:10536000FAEB34FFFB120FAC7900D083D082020A33
:10537000C974F7120764E9FEEA4B7004790580638B
:105380009007D3E0F8EEC3984008121048E979037B
:105390008051EA24FBF582EB34FFF583E0F8A3E0CB
:1053A000F9E849700FEA24FFF582EB34FFF583E05A
:1053B00064FF6008121048E979058027EEC0E0EA32
:1053C00024FFF582EB34FFF583D0E0F0EAFCEBFD3F
:1053D0007A017B0312102A7A007B80EEF912101EEC
:1053E000E979007F0102099574F412076489087550
:1053F0000A00750B007E007F00A2AFE433F509C2FE
:10540000AF900301E0F8A3E0F9801BE8FEE9FFEEAE
:105410004F7004880A890BE824FBF582E934FFF514
:1054200083E0F8A3E0F9E8496013E824FFF582E996
:1054300034FFF583E0650870D6EE4F60CEE8496032
:105440000C7A007B80A90812101EE9800A7A007B82
:1054500080A908121018E9EE4F6015780A120B4B5C
:10546000EEFCEFFD7A017B031210247402120AFC99
:10547000A809E509A2E092AFEEFAEFFB7F0402096A
:105480009574F7120764A2AFE433FEC2AFEC24FBBD
:10549000F582ED34FFF5837400F0A37400F08A8286
:1054A0008B83E0F8A3E0F9E849700B8A828B83ECE8
:1054B000F0A3EDF0803C8A828B83E0F8A3E0F980D2
:1054C0000FE824FBF582E934FFF583E0F8A3E0F967
:1054D000E824FBF582E934FFF583E0FAA3E0FBEA78
:1054E0004B70DEE824FBF582E934FFF583ECF0A392
:1054F000EDF0EEF8EEA2E092AF7F0102099574F7AD
:105500001207647409120CFCE0F8A3E0F9A2AFE4FE
:1055100033F508C2AF8A828B83E0FEA3E0FFEC6E16
:105520007002ED6F701AEC24FBF582ED34FFF58309
:10553000E0F8A3E0F98A828B83E8F0A3E9F0801E0B
:10554000EC24FBF582ED34FFF583E0FAA3E0FBE801
:1055500024FBF582E934FFF583EAF0A3EBF0EC24B9
:10556000FBF582ED34FFF5837400F0A37400F0ECDA
:1055700024FFF582ED34FFF58374FFF0A808E508F9
:10558000A2E092AF7F0102099574F7120764E9FD6A
:105590009007D3E0F8EDC398503FA2AFE433FEC2CA
:1055A000AFEDF87900E875F002A4C8ACF075F00032
:1055B000A42CFC75F002E9A42CF9900303E028FC6C
:1055C000A3E0398C82F583E04AF0A3E04BF0EEF8DB
:1055D000EEA2E092AF7900800279037F0102099583
:1055E00074F7120764E9FE9007D3E0F8EEC3985011
:1055F00045A2AFE433FFC2AFEAF4FCEBF4FDEEF8F2
:105600007900E875F002A4C8AAF075F000A42AFA9F
:1056100075F002E9A42AF9900303E028FAA3E0391F
:105620008A82F583E05CF0A3E05DF0EFF8EFA2E0A2
:1056300092AF7900800279037F01020995E9F8743D
:10564000FF687006D2AF790080027907020AC9E9C3
:10565000F874FF687006C2AF790080027907020A09
:10566000C9C082C083120FBE9003017400F0A374FE
:1056700000F0120F82120F94120FD0120FB879009F
:10568000D083D082020AC9C082C083120FD680FBA9
:1056900074F61207647E00120FCA120DB4EEF87988
:1056A00000E875F002A4C8AAF075F000A42AFA7503
:1056B000F002E9A42AF9900303E028FAA3E0398A6A
:1056C00082F583E0F8A3E0F9E849701074012EF93F
:1056D000E9FE9007D3E0F8E9C39840C19007D3E012
:1056E000F8EEC39840030257CDA2AFE433FDC2AF3A
:1056F000EEF87900E875F002A4C8AAF075F000A4ED
:105700002AFA75F002E9A42AF9900303E028FAA323
:10571000E0398A82F583E0FAA3E0FBEEF87900E84D
:1057200075F002A4C8ACF075F000A42CFC75F00272
:10573000E9A42CF9900303E028FCA3E0398C82F55E
:10574000837400F0A37400F0EDFFEDA2E092AFEEE1
:105750009007CEF0EEF9EEFC7D00EC75F002A4CCE3
:10576000A8F075F000A428F875F002EDA428FD74E7
:10577000CF2CF58274073DF583E0F8A3E0F583882C
:105780008212106E8A088B09AA08AB099007CE74A2
:10579000FFF0A2AFE433FDC2AFEEF87900E875F098
:1057A00002A4C8ACF075F000A42CFC75F002E9A4CA
:1057B0002CF9900303E028FCA3E0398C82F583E008
:1057C0004AF0A3E04BF0EDF8EDA2E092AF7F0202C9
:1057D0000995C082C0837A007907120E20E99003F0
:1057E000B97400F0D083D082020AC974F51207643C
:1057F00089088A09E509602E14602B14600A24FECA
:10580000601524FC6020806A7CE87D037B057A01BA
:10581000A908121060805B7CE87D037B057A32A9C1
:1058200008121060804C750A015308077E957F03AB
:1058300080258E828F83E06401F08E828F83E0FA70
:10584000A90A120E32E50A6208E50AC333F50AEE28
:105850002409FEEF3400FFE5086017E508550A60EB
:10586000E87408650960CBE5098E828F83E509F04D
:1058700080C8900393E0F97F0302099574F2120740
:105880006489088A0B8B0A8C0C8D0DE50870030265
:10589000595EE50A700302595EE50C450D7003027E
:1058A000595EE50AC39464400302595475090153D3
:1058B00008077E957F03807CE508550960688E8225
:1058C0008F83E0C39402500D900393E05509F89044
:1058D0000394E048F08E828F837400F08E828F8371
:1058E000A3A3A3E50CF0A3E50DF0E50A8E828F8358
:1058F000A3A3E50AF0E50B8E828F83A3E50BF0E509
:105900000B70088E828F83E0D2E2F0120D248E821B
:105910008F83A3A3A3A3A3120CDC8E828F83E0D278
:10592000E1F0E5096208E509C333F509EE2409FE53
:10593000EF3400FFE50870807A027B00900373E08B
:10594000F9120D18E97A027B00900373E0F9121046
:105950001EE980127A01A908120E20E980087A0057
:10596000A908120E20E97F0602099574F012076457
:1059700074F5120B5E7405120CFC7400F0A3740035
:10598000F08510828511837401F07403120CFC748D
:1059900007F07401120CFC7495F0A37403F09003EB
:1059A000B9E06003025C61025A3B7401120CFCE036
:1059B000F8A3E0F5838882A3A3A3A3A37808120C1D
:1059C000787407120CFC780C120C78E508C3950C5F
:1059D000FEE509950DFF7405120CFCE0F8A3E0F953
:1059E000E8496015EE4F601B7405120CFCE0F8A34B
:1059F000E0F9C3EE98EF99500A7405120CFCEEF032
:105A0000A3EFF0851082851183E0F87403120CFC7B
:105A1000E068F0851082851183E0C33385108285AC
:105A20001183F07401120CFCE02409F8A3E03400A7
:105A3000F97401120CFCE8F0A3E9F07403120CFCF9
:105A4000E07003025C3C851082851183E0F87403EA
:105A5000120CFCE05860BC7401120CFCE0F8A3E0EE
:105A6000F5838882E0A2E1509A120D247407120C8B
:105A7000FC120CDC7401120CFCE0F8A3E0F5838846
:105A800082A3A3A3A3A37808120C787407120CFCBA
:105A90007808120C3850030259AA7401120CFCE069
:105AA000F8A3E0F5838882E0A2E050667401120C4E
:105AB000FCE0F8A3E0F5838882A3A3E0F87464C354
:105AC00098C0E07404120CFCD0E0F07401120CFCDD
:105AD000E0F8A3E0F5838882E0C2E0F07A00851068
:105AE00082851183E0F9120E327401120CFCE0F889
:105AF000A3E0F5838882E0A2E25003025B80740198
:105B0000120CFCE0F8A3E0F5838882A3E024FFF008
:105B1000806E7401120CFCE0F8A3E0F5838882A388
:105B2000E070257401120CFCE0F8A3E0F583888294
:105B3000E0A2E240137401120CFCE0F8A3E0F5834C
:105B40008882E06402F080387401120CFCE0F8A353
:105B5000E0F5838882A3A3E0C0E07404120CFCD0BB
:105B6000E0F07401120CFCE0F8A3E0F5838882E019
:105B7000D2E0F07A01851082851183E0F9120E32AD
:105B80007401120CFCE0F8A3E0F5838882E0A2E146
:105B900050727404120CFCE0F50CE4F50DF50EF5F2
:105BA0000F7401120CFCE0F8A3E0F5838882A3A334
:105BB000A3E0F508A3E0F509E4F50AF50B780C7904
:105BC000081206749008837808120C78780C79080B
:105BD0001206F4AE0CAF0D7407120CFC8E088F0980
:105BE000E4F50AF50B7808120BDB7401120CFCE0EB
:105BF000F8A3E0F5838882A3A3A3A3A37808120CDB
:105C0000A50259D67E007F00851082851183E0F8B9
:105C1000900394E05860047A0180027A0085108233
:105C2000851183E0F9120E20E9851082851183E049
:105C300064FFF8900394E058F00259D67405120CF2
:105C4000FCE0F8A3E0F9E84960177405120CFCE0E9
:105C5000FCA3E0FD7A027B00900373E0F9120D0CC7
:105C6000E9740B120AFC7F08020995C082C083E91F
:105C7000A2E0500B74016A7004D2868002C286E9E9
:105C8000A2E1500B74016A7004D2878002C287E9D6
:105C9000A2E2500B74016A7004D2A18002C2A1E991
:105CA000A2E3500B74016A7004D2868002C286EAB5
:105CB0006008900393E049F0800A74FF69F890034C
:105CC00093E058F0D083D082020AC974F0120764BE
:105CD00074EF120B5E7401120CFCEAF0A3EBF0748B
:105CE00009120CFCECF0A3EDF07407120CFCE4F0CC
:105CF000A3F07421120CFCE0F8A3E0F97421120C5B
:105D0000FCE8F0A3E9F07423120CFCE0F8A3E0F93E
:105D10007423120CFCE8F0A3E9801B7421120CFC24
:105D20001260E17409120CFC1260F812106E740714
:105D3000120CFC126122F07401120CFC126105F9C4
:105D40007401120CFCE02401FAA3E03400FB74019E
:105D5000120CFCEAF0A3EBF07425696015E970BB46
:105D60007407120CFC1260E17411120AFC7F080225
:105D700009957A0079007401120CFC1260BF120CB4
:105D8000FC1261052498600824FC700E09E9800269
:105D90000AEA120CFCECF0A3EDF07401120CFC12F8
:105DA0006105F87401120CFC1260BF120CFCECF0DF
:105DB000A3EDF0E8851082851183F0EAA2E092F06D
:105DC000E9A2E0B372F092F0E824A87003025EA5A5
:105DD00024F56017147003025E7C24F5607A24FCBD
:105DE000603324FB7003025EA580177423120CFC41
:105DF00012610E85108285118312612B120CFC1228
:105E000060DC7421120CFC1260E185108285118324
:105E1000E0F9025D237423120CFC12610EFEA3E074
:105E2000FF126130120CFC1260CBF08E828F83E087
:105E3000F9A3AE82AF837003025D377421120CFCAC
:105E40001260E17409120CFC1260F812106E7407F3
:105E5000120CFC12612280D2740F120CFC74081216
:105E6000613D500A120CFCE4F0A37480804B120CCC
:105E7000FCE4F0A3F0A3F0A374408050740F120C64
:105E8000FC740A12613D500B120CFC7410F0A374E8
:105E9000278026120CFCE4F0A374CAF0A3749AF0D5
:105EA000A3743B8027740F120CFC741012613D50D8
:105EB0000F120CFCE4F0A37410F0A3E4F0A3800C28
:105EC000120CFCE4F0A3F0A3F0A37410F0EAA2E03B
:105ED0005038851082851183E06464700302601875
:105EE0007423120CFC12610EF8A3E0F9E8FCE9FD42
:105EF000740B120CFCECF0A3EDF0A3E4F0A3126120
:105F00002B120CFC1260CB025F8FE9A2E04003026F
:105F1000600D7423120CFC126105126116120CD074
:105F2000740B120CFC120CDCE5082404F8E50934AF
:105F300000F97423120CFC1260DC85108285118339
:105F4000E06464704B90087B7808120C78740B1234
:105F50000CFC7808120B9E5037740B120CFC78085E
:105F6000120C787808120C27740B120CFC780812AB
:105F70000CA57421120CFC1260E1792D7409120C2D
:105F8000FC1260F812106E7407120CFC126122F001
:105F90007403120CFC7808120C78740B120CFC7849
:105FA00008120C3850337403120CFC780C120C7865
:105FB000740F120CFC1260E71206F47403120CFC4E
:105FC000780C120CA59009317808120C7874031221
:105FD0000CFC7808120C3850B7740B120CFC7808C3
:105FE000120C787403120CFC780C120C7878087977
:105FF0000C1206F4E5082430F9C3943A40478510A2
:1060000082851183E0647870387427803685108229
:10601000851183E0646470267423120CFC12610EF7
:10602000FCA3E0FD3395E0FE740B120CFCECF0A336
:10603000EDF0A3EEF0A3F0E5082402025F2C025E6F
:10604000E0740729F97421120CFC1260E174091242
:106050000CFC1260F812106E7407120CFC12612214
:10606000F0740B120CFC7808120C787403120CFC00
:10607000780C120C787808790C1206F4740B120C58
:10608000FC780C120CA57403120CFC780C120C7822
:10609000740F120CFC1260E71206F47403120CFC6D
:1060A000780C120CA57403120CFC7808120C78E51D
:1060B000084509450A450B6003025FD9025D37E0D8
:1060C0002401FCA3E03400FD7401221260CF22E021
:1060D000FAA3E0F5838A82E8F0A3E9221260CFF008
:1060E00022E0FAA3E0FB22E0F508A3E0F509E4F5DD
:1060F0000AF50B780C7908221260FC22E0F8A3E084
:10610000F583888222126109221260FCE02212616A
:1061100009126116E022F508A3E0F509850882F569
:106120008322E02401F0A3E0340022F01261302247
:10613000E5082402F8E5093400F9742322F0A3E409
:10614000F0A2F074032274F71207647C007D007ED5
:10615000007F0090033EECF0A3EDF0A3EEF0A3EF80
:10616000F07F0102099574F2120764890A8A088B8C
:1061700009ECFEEDFFAA08AB09A90A120E6E8A0C03
:106180008B0DAA0CAB0DEA4B600E8A828B83A3A306
:10619000EEF0A3EFF00262397A097B00120FB28AA7
:1061A0000C8B0DAA0CAB0DEA4B7003026235E50AAD
:1061B0008A828B83A3A3A3A3A3A3E50AF08A828B7D
:1061C00083A3A3A3A3E508F0A3E509F08A828B8348
:1061D000A3A3EEF0A3EFF08A828B837400F0A37484
:1061E00000F08A828B83A3A3A3A3A3A3A37400F0CC
:1061F000A37400F090033CE0F8A3E0F9E849700ACA
:1062000090033CEAF0A3EBF0802F90033CE0F8A36E
:10621000E0F9800988828983E0F8A3E0F98882891F
:1062200083E0FCA3E0FDEC4D70EA88828983EAF00C
:10623000A3EBF080047A007B007F06020995C08200
:10624000C08390033CE0FCA3E0FD80098C828D8339
:10625000E0FCA3E0FDEC4D601F8C828D83A3A3A323
:10626000A3E06A7003A3E06B70E28C828D83A3A32A
:10627000A3A3A3A3E06970D4ECFAEDFBD083D08292
:10628000020AC9C082C083EA4B600F8A828B83A353
:10629000A3A3A37400F0A37400F0D083D082020AF9
:1062A000C974F6120764E9FFA2AFE433FEC2AFEF90
:1062B000F9120F7C8A088B09A808A909EEFAEEA248
:1062C000E092AFE5084960047900800279087F0216
:1062D00002099574F4120764E9FF8C088D09A2AFD6
:1062E000E433FEC2AFAC08AD09EFF9120F7C8A0AA5
:1062F0008B0BA80AA90BE849601288828983A3A3A3
:10630000A3A3A3A3A3E508F0A3E509F0EEFAEEA288
:10631000E092AFE84960047900800279087F0402C6
:10632000099574F41207648908A2AFE433F509C231
:10633000AFA908120E6E8A0A8B0BAE0AAF0BEE4F96
:106340006007EEFAEFFB120D06A809E509A2E0923C
:10635000AFEE4F60047900800279067F0402099550
:1063600074F012076474FF120B5E8A088B09A2AFE7
:10637000E433F50AC2AF85080C85090DE4F50EF586
:106380000F90033E780C120BEEE50A851082851102
:1063900083E50AF0E50AA2E092AF90033CE0F8A39F
:1063A000E0F9E849700302652290033CE0FEA3E0B7
:1063B000FF750E00750F0080558E0E8F0F8E828F29
:1063C00083E0FEA3E0FF850A0BE50AA2E092AFE5B9
:1063D0000C450D6039850C82850D83A3A3E0F8A3DD
:1063E000E0F9E8497021850C82850D83A3A3A3A35E
:1063F000E0FAA3E0FB850C82850D83A3A3A3A3A3EE
:10640000A3E0F912101EE9AA0CAB0D120FACEE4F6F
:106410007003026522750C00750D00A2AFE433F520
:106420000AC2AF8E828F83A3A3E0F8A3E0F9C3E58D
:106430000898E50999400F8E828F83A3A37400F01A
:10644000A37400F080108E828F83A3A3C3E095080D
:10645000F0A3E09509F08E828F83A3A3E0F8A3E078
:10646000F9E849705D8E828F83A3A3A3A3A3A3A39E
:10647000E0F8A3E0F9E84960498E828F83A3A3A3E3
:10648000A3E0F8A3E0F9E84960388E828F83A3A3E4
:10649000A3A3E0FAA3E0FB8E828F83A3A3A3A3A30D
:1064A000A3E0F912101EE98E828F83A3A3A3A3A3F6
:1064B000A3A3E0F8A3E0F98E828F83A3A3E8F0A35F
:1064C000E9F08E828F83A3A3E0F8A3E0F9E84960A6
:1064D000148E828F83A3A3A3A3E0F8A3E0F9E84975
:1064E00060030263B9E50E450F70138E828F83E05F
:1064F000F8A3E0F990033CE8F0A3E9F080148E8261
:106500008F83E0F8A3E0F9850E82850F83E8F0A37E
:10651000E9F08E0C8F0D8E828F83E0FEA3E0FF02E8
:1065200063C67401120AFC7F08020995C082C08309
:1065300090033E120CD0D083D082020AC974F512A7
:106540000764E9FEEE75F01084E5F0A8F07900E844
:1065500075F000A4C8AFF075F008A42FFF75F00027
:10656000E9A42FF9EA2400FAEB3480FBEA28F8EBDF
:1065700039F9E5C7F50A75F010EE84FEA2AFE433F1
:10658000FFC2AFE5C754F84EF5C7740B120CFCE020
:10659000FAA3E0FB801C88828983E08C828D83F0E3
:1065A00088828983A3A882A9838C828D83A3AC82ED
:1065B000AD838A088B09E50824FFFAE50934FFFB5F
:1065C000E508450970D0850AC7EFF8EFA2E092AF61
:1065D0007F0302099574F71207647E4B7F03ECF882
:1065E000EDF9E4E9F88E828F83F0EC8E828F83A33D
:1065F000F08E828F83A3A37462F08E828F83A3A315
:10660000A37473F08E828F83A3A3A3A3E0541FF01F
:106610008E828F83A3A3A3A3E08E828F83A3A3A3E1
:10662000A3F07409120CFCE0F8A3E0F975F004E89B
:10663000A48E828F83A3A3A3A3A3F08E828F83A3B0
:10664000A3A3A3E054E0F0E875F004A4C8ACF0758F
:10665000F000A42CFC75F004E9A42CF9E4E9F88E10
:10666000828F83A3A3A3A3E048F08E828F83A3A38A
:10667000A3A3A3A3E0C2E7F08E828F83A3A3A3A367
:10668000A3A3E08E828F83A3A3A3A3A3A3F08E82F0
:106690008F83A3A3A3A3A3A3E0549FF08E828F8331
:1066A000A3A3A3A3A3A3E08E828F83A3A3A3A3A3E7
:1066B000A3F08E828F83A3A3A3A3A3A3E054E0F04F
:1066C0008E828F83A3A3A3A3A3A3E04412F08E82A0
:1066D0008F83A3A3A3A3A3A3A3E0543FF08E828F31
:1066E00083A3A3A3A3A3A3A3E0D2E6F08E828F8308
:1066F000A3A3A3A3A3A3A3E054CFF08E828F83A36D
:10670000A3A3A3A3A3A3E08E828F83A3A3A3A3A386
:10671000A3A3F08E828F83A3A3A3A3A3A3A3E0C20A
:10672000E3F08E828F83A3A3A3A3A3A3A3E08E820F
:106730008F83A3A3A3A3A3A3A3F08E828F83A3A37A
:10674000A3A3A3A3A3E0C2E2F08E828F83A3A3A39B
:10675000A3A3A3A3E08E828F83A3A3A3A3A3A3A336
:10676000F08E828F83A3A3A3A3A3A3A3E054FCF082
:106770008E828F83A3A3A3A3A3A3A3E0D2E1F0758A
:10678000D1FE75D601EA906271F0E4EBFA90627284
:10679000F0906270E0D2E1F0906270E0A2E740F821
:1067A0007F01020995C082C08375F002E9A490625E
:1067B00072F0906270E0D2E0F0D083D082020AC919
:1067C000C082C08390038E7400F053F3FE53FDFE2D
:1067D00053F3EF53FDEF53F3DF53FDDF53F4FE5359
:1067E000FEFE53F4F753FEF753F4EF53FEEF90031E
:1067F0008F7400F0A37400F09003917400F0538C38
:10680000FE438C01538CFD438C02538CFB438C0460
:10681000D2BDD2BDD2BD439A10439A10439A10D034
:1068200083D082020AC974F7120764E9FE900392CA
:10683000F090038FEAF0A3EBF0900392E0603B430B
:10684000AB017589FE43AB107589EF43AB207589A9
:10685000DF438D01758AFE438D08758AF7438D10DD
:10686000758AEF900391E06401702E7A017B0090AD
:106870000373E0F9120D18E9801F53ABFE53ABEF21
:1068800053ABDF538DFE538DF7538DEF7A017B00B1
:10689000900373E0F912101EE99003917401F07FE8
:1068A000010209957900A2804005D3E992E7F9A297
:1068B000844005D3E992E0F9A2854005D3E992E14D
:1068C000F9A2904005D3E992E4F9A2934005D3E9F7
:1068D00092E3F9A2944005D3E992E2F9020AC9745D
:1068E000F71207647E00120E08E9FE900392E07032
:1068F0000C90038EE06E6026EE90038EF0EE601E2C
:1069000090038FE0F8A3E0F9E84960127A00EEF90D
:1069100090038FE0F8A3E0F583888212106E7F0168
:10692000020995C082C0837800E589A2E050057510
:1069300089FE7801E589A2E450057589EF7801E5C3
:1069400089A2E550057589DF7801E58AA2E0500546
:10695000758AFE7801E58AA2E35005758AF7780109
:10696000E58AA2E45005758AEF7801E860117C1988
:106970007D007A017B00900373E0F9120D0CE9D0E1
:1069800083D082020AC9C082C083120D6CD083D02A
:1069900082020AC974F412076474F6120B5EC2AF65
:1069A00053BEFBE59DA2E650FA007800790080090D
:1069B00000E82401F8E93400F9C3E894F8E9940107
:1069C00040EE75C6807480659E70FA43BE04906286
:1069D000707408F0C28643FD40C28743FD80C2A1A7
:1069E00043FF02C286C287C2A1C2868002C28679E4
:1069F000007C007D007E007F00851082851183EC85
:106A0000F0A3EDF0A3EEF0A3EFF080139007F3787E
:106A100008120C788510828511837808120BEE908D
:106A200007F77808120C7885108285118378081290
:106A30000C3840D8A2865004C2868002D286A28733
:106A40005004C2878002D287A2A15004C2A1800252
:106A5000D2A1900343E060109003437400F0740AE5
:106A6000120AFC7F04020995A2844003098002797E
:106A700000740A6960030269F1C286C287C2A1C2BA
:106A800086780079008010A284400478007900E8BC
:106A90002401F8E93400F9C3E894F4E99401A2D29E
:106AA00065D03340E29061A3E0C0E07408120CFCB2
:106AB000D0E0F09061A4E0C0E07409120CFCD0E0DA
:106AC000F07B007A00800BC2860B74086B70037B2E
:106AD000000AEAC3940640030269EDA28440FCD296
:106AE00086D287D2A1EB7004D2868002C28678005B
:106AF00079008010A284400478007900E82401F82D
:106B0000E93400F9C3E894F4E99401A2D265D033E2
:106B100040E2C286C287C2A1C2867508017509001B
:106B20007407C39B7808120C018A0A750B00740461
:106B3000120CFCE582250AF582E583350BF583E02E
:106B400055086083D286808153F3FD53FDFD538C3D
:106B5000FE438C01D2BD75EB0043EB80020AC9E90C
:106B600060087589FD43AB02800353ABFD020AC97F
:106B700074F7120764E9FE43FD02C2817C147D00B4
:106B80007A207B00900373E0F9120D0CE990034A20
:106B90007401F0EE9007FBF07F01020995C082C0FE
:106BA0008390034AE06401701090034A7402F07904
:106BB00001120D78D28153FDFDD083D082020AC923
:106BC00074F6120764E9FA75F008900349E084F856
:106BD000E8C39405400479FF804E88087509007465
:106BE000442508F58274033509F583E0C333C0E01A
:106BF000880875090074442508F58274033509F581
:106C000083D0E0F0EA60158808750900744425080F
:106C1000F58274033509F583E0D2E0F0900349E092
:106C20002401F0900349E0F97F02020995C082C077
:106C300083E589F85389FD90034AE06060E8A2E1AA
:106C4000505B90034AE06402700890034A7403F0BA
:106C5000804B90034AE06403700B90034A7405F084
:106C600043EB10803890034AE064057030E5EAF8A1
:106C7000790143EB04C394C850027900120D8AE9EC
:106C8000C3942840187900120D7853EBEF120D963B
:106C9000E99003497400F090034A7400F0D083D067
:106CA00082020AC974F61207649007FBE064FF6071
:106CB0004A7A077B0012104E8A088B09AE08AF098A
:106CC000EE4F60338E828F8374C3F07508057509AB
:106CD000007808120B4B7C447D03EE2402FAEF345B
:106CE00000FB12105A7402120AFCEEFAEFFB900736
:106CF000FBE0F9121042E97900800279017F02027B
:106D0000099574F71207648A828B837E01ECF8ED93
:106D1000F97A107B2712088CE8F8E86009743028AB
:106D2000F0A37E0080047420F0A3ECF8EDF97A1053
:106D30007B2712088CEAF8EBF97AE87B0312088CBF
:106D4000E8F8E86009743028F0A37E00800DEE605A
:106D5000067420F0A380047430F0A3ECF8EDF97A07
:106D6000E87B0312088CEAF8EBF97A647B001208DE
:106D70008CE8F8E86009743028F0A37E00800DEEFE
:106D800060067420F0A380047430F0A3ECF8EDF9F1
:106D90007A647B0012088CEAF8EBF97A0A7B00121D
:106DA000088CE8F8E86009743028F0A37E00800DB4
:106DB000EE60067420F0A380047430F0A3ECF8EDCC
:106DC000F97A0A7B0012088CEAF8743028F0A37470
:106DD0000AF07F0102099574F312076475080075C3
:106DE0000900740D120CFCE0F50AA3E0F50B800C11
:106DF000E5082401F508E5093400F509C3E508951F
:106E00000AE509950B502AEAF8EBF988828983A3F1
:106E1000AA82AB83ECFEEDFF8E828F83A3AC82ADA2
:106E20008388828983E0F88E828F83E06860C180E6
:106E3000047A007B007F0502099574F012076474E0
:106E4000FC120B5E7E007F00851082851183AA8272
:106E5000AB83120E9E9003057808120C7885108281
:106E60008511837808120B897003026F03851082E5
:106E7000851183780C120C78900305780C120B2F77
:106E80009007D4780C120A86507985108285118378
:106E9000120CD0900305120CDC900309E0F508A356
:106EA000E0F509E4F50AF50B780C7908120BC885B2
:106EB0001082851183780C120CA5851082851183B0
:106EC0007808120C7874057808120B16EE2508FE67
:106ED000EF3509FF8510828511837808120C78E55B
:106EE00008541FF8E5095400F9900309E8F0A3E9F4
:106EF000F0EE4F600EEEFAEFFB120FC4EEFAEFFB6E
:106F0000120D1E7404120AFC7F0802099574F41213
:106F1000076490030BE02AF0A3E03BF090030BC35F
:106F2000E094E8A3E09403403790030BE0F8A3E07B
:106F3000F97AE87B0312088C88088909E4F50AF5D8
:106F40000B90030D7808120BEE90030BE0F8A3E012
:106F5000F97AE87B0312088C90030BEAF0A3EBF0BC
:106F60007F04020995C082C0839003427480F0D0F0
:106F700083D082020AC974F6120764EAFC7A007BA5
:106F8000007D01E9C39408500E78008005EDC333FD
:106F9000FD08E8C39940F6EC146008146009146019
:106FA0000A800C7A00800A7A1080067A2080027AA1
:106FB00030900342E0F8E94A48F5B6E5B4A2E7505C
:106FC000FAE5BAFA7B00E5BBFE7F00E4CEFFEE4AAD
:106FD000FAEF4BFBC3EA9400EB9400A2D265D033E6
:106FE00050047A007B00EC146008146016146024CE
:106FF00080338A088B0974087808120C48AA08ABF9
:107000000980318A088B0974067808120C48AA088E
:10701000AB0980208A088B0974047808120C48AAEE
:1070200008AB09800F8A088B0974027808120C4893
:10703000AA08AB097F02020995E9F875B60FE5B415
:10704000A2E750FAE8C395BB5004790180027900A9
:10705000020AC974F7120764E9FE70119000007407
:1070600000F079FF121006E9120D3080097A427B98
:107070000D7901120E027F01020995C082C083E5DD
:107080009D5418F8E8600D74086860087410686012
:1070900003120D66D083D082020AC9C082C083E980
:1070A000F89007DEE064FF7009E89007DEF07901F0
:1070B00080027900D083D082020AC974F612076474
:1070C000E9FEEAFF9007DEE064FF60387A047B00A7
:1070D00012104E8A088B09AA08AB09EA4B60218A74
:1070E000828B8374C0F0EF8A828B83A3A3F0EE8A35
:1070F000828B83A3A3A3F09007DEE0F9121042E98C
:107100007900800279017F0202099574F712076401
:10711000E9FEEEA2E55004D2F08002C2F0A2F0E453
:1071200033FAEEF9120D3CE97F01020995C082C0E5
:1071300083E9900373F0D083D082020AC9C082C071
:1071400083120D54120D9C120E44120E1A120ED4FC
:10715000120DFC120D72D083D082020AC974F6128D
:107160000764EAFEEBFFEE5400F8EF5480F9E849BB
:107170006034900373E0F91210308A088B09AA0872
:10718000AB098014121048E9900373E0F912103033
:107190008A088B09AA08AB09EA4B70E8EE6400FA8A
:1071A000EF6480FB8047EE5402600D120E2CEE64FB
:1071B00002FAEF6400FB8035EEA2E05024120E0EBE
:1071C000900392E070117C647D007A017B00900353
:1071D00073E0F9120D0CE9EE6401FAEF6400FB8034
:1071E0000CEE54206003120D847A007B007F0202B3
:1071F0000995C082C083120EECD083D082020AC9E6
:10720000C082C0838A828B83127297E9F08A828B54
:1072100083E02401FCA3E03400FD8A828B83ECF040
:10722000A3EDF0D083D082020AC974F61207647409
:10723000FC120B5E7402120CFCEAF0A3EBF0ECFA09
:10724000EDFB740E120CFCA882A9838510828511B7
:1072500083E8F0A3E9F08510828511838582088593
:1072600083097808120B4B7404120CFC8582088584
:1072700083097808120B4B7C3A7D0F120F4C740473
:10728000120AFC7402120CFC127297E4F0740412DD
:107290000AFC7F02020995E0F8A3E0F583888222C8
:1072A00079FF121006E953BEFBE59DA2E650FA00F5
:1072B00078007900800900E82401F8E93400F9C376
:1072C000E894F8E9940140EE75C6807480659E707C
:1072D000FA43BE049062707408F0C28643FD40C257
:1072E0008743FD80C2A143FF02120D487900120DB1
:1072F0002A120DA87A007B00120F9A121000E97969
:10730000FF12100CE97902120D2A120D4E120FDC39
:107310007A007B00020AC974F71207647E10794A6A
:10732000120D60E960F874FF2EF8E8FEE870EF7F58
:1073300001020995020AC974F71207647E009007DA
:10734000D3E0FA7B00EA75F002A4CAA8F075F00059
:10735000A428F875F002EBA428FB120FB2900303E7
:10736000EAF0A3EBF09007D3E0FC7D00EC75F002AF
:10737000A4CCA8F075F000A428F875F002EDA428BC
:10738000FD7900900303E0FAA3E0FB121054EEF93C
:10739000120DA20EEEF9120EF20E7F01020995EB0C
:1073A000C313FBEA13FAEAF8EBF9E824FFFAE9342D
:1073B000FFFBE8496013000000000000000000002F
:1073C0000000000000000080DD020AC974F7120707
:1073D00064EAFEEBFFEEF8EFF9E824FFFEE934FF84
:1073E000FFE84960097AE87B03120E3880E77F01E5
:1073F000020995C082C083851082851183E0F8A3BD
:10740000E0F9E84960128A828B83ECF0A3E824FF5C
:1074100018E934FFF94870F2D083D082020AC9C05B
:1074200082C0838A828B838001A3E070FCE582C3E3
:107430009AFAE5839BFBD083D082020AC9784B7904
:1074400003E4E9F8F5D575D44B78537903E4E9F80A
:10745000F5D375D253D2B8020AC9C082C083900353
:107460003B7400F09003357400F0A37400F0D083F7
:05747000D082020AC9F0
:0400000500000C6883
:00000001FF
